:020000040800F2
:1000000000500020B183000865B5000869B50008FC
:100010006DB5000871B5000875B500080000000056
:1000200000000000000000000000000079B500089A
:100030007DB500080000000081B5000801840008BB
:10004000018400080184000801840008018400087C
:10005000018400080184000801840008018400086C
:10006000018400080184000801840008018400085C
:10007000018400080184000801840008018400084C
:10008000018400080184000801840008018400083C
:1000900085B5000801840008018400087D970008E8
:1000A000018400080184000801840008018400081C
:1000B0000185000891870008018400080184000878
:1000C00001840008018400080184000801840008FC
:1000D000018400080184000801840008DD7800081C
:1000E00015330008018400080184000800000000A6
:1000F0000000000000000000000000000000000000
:0C01000000000000000000005FF808F1A3
:1001100010B5054C237833B9044B13B10448AFF341
:1001200000800123237010BD38050020000000006E
:10013000E0C8000808B5034B1BB103490348AFF3FF
:10014000008008BD000000003C050020E0C8000859
:1001500081F0004102E000BF83F0004330B54FEA78
:1001600041044FEA430594EA050F08BF90EA020FE5
:100170001FBF54EA000C55EA020C7FEA645C7FEA78
:10018000655C00F0E2804FEA5454D4EB5555B8BF9B
:100190006D420CDD2C4480EA020281EA030382EA0C
:1001A000000083EA010180EA020281EA0303362D9E
:1001B00088BF30BD11F0004F4FEA01314FF4801C71
:1001C0004CEA113102D0404261EB410113F0004F83
:1001D0004FEA03334CEA133302D0524263EB43033A
:1001E00094EA050F00F0A780A4F10104D5F1200ED8
:1001F0000DDB02FA0EFC22FA05F2801841F1000133
:1002000003FA0EF2801843FA05F359410EE0A5F106
:1002100020050EF1200E012A03FA0EFC28BF4CF037
:10022000020C43FA05F3C01851EBE37101F00045ED
:1002300007D54FF0000EDCF1000C7EEB00006EEBFA
:100240000101B1F5801F1BD3B1F5001F0CD3490884
:100250005FEA30004FEA3C0C04F101044FEA4452DB
:1002600012F5800F80F09A80BCF1004F08BF5FEA62
:10027000500C50F1000041EB045141EA050130BD42
:100280005FEA4C0C404141EB010111F4801FA4F1E5
:100290000104E9D191F0000F04BF01460020B1FA3A
:1002A00081F308BF2033A3F10B03B3F120020CDA72
:1002B0000C3208DD02F1140CC2F10C0201FA0CF050
:1002C00021FA02F10CE002F11402D8BFC2F1200CB5
:1002D00001FA02F120FA0CFCDCBF41EA0C0190406B
:1002E000E41AA2BF01EB0451294330BD6FEA0404B4
:1002F0001F3C1CDA0C340EDC04F11404C4F120029F
:1003000020FA04F001FA02F340EA030021FA04F3B0
:1003100045EA030130BDC4F10C04C4F1200220FA07
:1003200002F001FA04F340EA0300294630BD21FA45
:1003300004F0294630BD94F0000F83F4801306BF0B
:1003400081F480110134013D4EE77FEA645C18BFFF
:100350007FEA655C29D094EA050F08BF90EA020F96
:1003600005D054EA000C04BF1946104630BD91EA8E
:10037000030F1EBF0021002030BD5FEA545C05D191
:100380004000494128BF41F0004130BD14F58004D0
:100390003CBF01F5801130BD01F0004545F0FE4144
:1003A00041F470014FF0000030BD7FEA645C1ABF79
:1003B000194610467FEA655C1CBF0B46024650EAB0
:1003C000013406BF52EA033591EA030F41F40021DC
:1003D00030BD00BF90F0000F04BF0021704730B562
:1003E0004FF4806404F132044FF000054FF0000137
:1003F00050E700BF90F0000F04BF0021704730B5F8
:100400004FF4806404F1320410F0004548BF4042CC
:100410004FF000013EE700BF42004FEAE2014FEA21
:1004200031014FEA02701FBF12F07F4393F07F4FFC
:1004300081F06051704732F07F4208BF704793F0FF
:100440007F4F04BF41F40021704730B54FF4607412
:1004500001F0004521F000411CE700BF50EA010215
:1004600008BF704730B54FF000050AE050EA0102BE
:1004700008BF704730B511F0004502D5404261EB2E
:1004800041014FF4806404F132045FEA915C3FF46F
:10049000D8AE4FF003025FEADC0C18BF03325FEA0C
:1004A000DC0C18BF033202EBDC02C2F1200300FABD
:1004B00003FC20FA02F001FA03FE40EA0E0021FAE2
:1004C00002F11444BDE600BF70B54FF0FF0C4CF4D0
:1004D000E06C1CEA11541DBF1CEA135594EA0C0F82
:1004E00095EA0C0F00F0DEF82C4481EA030621EABD
:1004F0004C5123EA4C5350EA013518BF52EA0335F8
:1005000041F4801143F4801338D0A0FB02CE4FF0A9
:100510000005E1FB02E506F00042E0FB03E54FF0D9
:100520000006E1FB03569CF0000F18BF4EF0010ED1
:10053000A4F1FF04B6F5007F64F5407404D25FEACD
:100540004E0E6D4146EB060642EAC62141EA555180
:100550004FEAC52040EA5E504FEACE2EB4F1FD0CC2
:1005600088BFBCF5E06F1ED8BEF1004F08BF5FEA40
:10057000500E50F1000041EB045170BD06F00046F2
:1005800046EA010140EA020081EA0301B4EB5C049F
:10059000C2BFD4EB0C0541EA045170BD41F4801197
:1005A0004FF0000E013C00F3AB8014F1360FDEBFBC
:1005B000002001F0004170BDC4F10004203C35DA98
:1005C0000C341BDC04F11404C4F1200500FA05F31B
:1005D00020FA04F001FA05F240EA020001F00042BC
:1005E00021F0004110EBD37021FA04F642EB060132
:1005F0005EEA430E08BF20EAD37070BDC4F10C045C
:10060000C4F1200500FA04F320FA05F001FA04F21F
:1006100040EA020001F0004110EBD37041F100010B
:100620005EEA430E08BF20EAD37070BDC4F1200516
:1006300000FA05F24EEA020E20FA04F301FA05F27E
:1006400043EA020321FA04F001F0004121FA04F226
:1006500020EA020000EBD3705EEA430E08BF20EAF6
:10066000D37070BD94F0000F0FD101F00046400030
:1006700041EB010111F4801F08BF013CF7D041EAB2
:10068000060195F0000F18BF704703F000465200B6
:1006900043EB030313F4801F08BF013DF7D043EA87
:1006A0000603704794EA0C0F0CEA135518BF95EA3D
:1006B0000C0F0CD050EA410618BF52EA4306D1D1C4
:1006C00081EA030101F000414FF0000070BD50EAE3
:1006D000410606BF1046194652EA430619D094EA6D
:1006E0000C0F02D150EA013613D195EA0C0F05D157
:1006F00052EA03361CBF104619460AD181EA0301AB
:1007000001F0004141F0FE4141F470014FF0000062
:1007100070BD41F0FE4141F4780170BD70B54FF0FD
:10072000FF0C4CF4E06C1CEA11541DBF1CEA13557D
:1007300094EA0C0F95EA0C0F00F0A7F8A4EB05045F
:1007400081EA030E52EA03354FEA013100F0888056
:100750004FEA03334FF0805545EA131343EA12631F
:100760004FEA022245EA111545EA10654FEA0026D4
:100770000EF000419D4208BF964244F1FD0404F58D
:10078000407402D25B084FEA3202B61A65EB0305E9
:100790005B084FEA32024FF480104FF4002CB6EBA6
:1007A000020E75EB030E22BFB61A754640EA0C0026
:1007B0005B084FEA3202B6EB020E75EB030E22BF66
:1007C000B61A754640EA5C005B084FEA3202B6EBA7
:1007D000020E75EB030E22BFB61A754640EA9C0066
:1007E0005B084FEA3202B6EB020E75EB030E22BF36
:1007F000B61A754640EADC0055EA060E18D04FEAF4
:10080000051545EA16754FEA06164FEAC30343EA93
:1008100052734FEAC2025FEA1C1CC0D111F4801F60
:100820000BD141EA00014FF000004FF0004CB6E759
:1008300011F4801F04BF01430020B4F1FD0C88BFF8
:10084000BCF5E06F3FF6AFAEB5EB030C04BFB6EB03
:10085000020C5FEA500C50F1000041EB045170BDF6
:100860000EF0004E4EEA113114EB5C04C2BFD4EB23
:100870000C0541EA045170BD41F480114FF0000EA7
:10088000013C90E645EA060E8DE60CEA135594EA23
:100890000C0F08BF95EA0C0F3FF43BAF94EA0C0F26
:1008A0000AD150EA01347FF434AF95EA0C0F7FF49B
:1008B00025AF104619462CE795EA0C0F06D152EAEF
:1008C00003353FF4FDAE1046194622E750EA4106D3
:1008D00018BF52EA43067FF4C5AE50EA41047FF4E4
:1008E0000DAF52EA43057FF4EBAE12E74FF0FF3C49
:1008F00006E000BF4FF0010C02E000BF4FF0010C1A
:100900004DF804CD4FEA410C7FEA6C5C4FEA430C92
:1009100018BF7FEA6C5C1BD001B050EA410C0CBFE1
:1009200052EA430C91EA030F02BF90EA020F002043
:10093000704710F1000F91EA030F58BF994208BFAA
:1009400090422CBFD8176FEAE37040F00100704767
:100950004FEA410C7FEA6C5C02D150EA013C07D1BE
:100960004FEA430C7FEA6C5CD6D152EA033CD3D009
:100970005DF8040B704700BF8446104662468C4603
:100980001946634600E000BF01B5FFF7B7FF002836
:1009900048BF10F1000F01BD4DF808EDFFF7F4FF5F
:1009A0000CBF012000205DF808FB00BF4DF808EDEA
:1009B000FFF7EAFF34BF012000205DF808FB00BF0D
:1009C0004DF808EDFFF7E0FF94BF012000205DF82F
:1009D00008FB00BF4DF808EDFFF7CEFF94BF0120E4
:1009E00000205DF808FB00BF4DF808EDFFF7C4FFDD
:1009F00034BF012000205DF808FB00BF4FEA410230
:100A0000B2F1E04324BFB3F5001CDCF1FE5C0DD96C
:100A100001F0004C4FEAC0024CEA5070B2F1004FB6
:100A200040EB830008BF20F00100704711F0804FB9
:100A300021D113F13872BCBF01F00040704741F47E
:100A400080114FEA5252C2F11802C2F1200C10FA82
:100A50000CF320FA02F018BF40F001004FEAC12366
:100A60004FEAD32303FA0CFC40EA0C0023FA02F30A
:100A70004FEA4303CCE77FEA625307D150EA0133E0
:100A80001EBF4FF0FE4040F44000704701F00040B0
:100A900040F0FE4040F40000704700BF80F000408E
:100AA00002E000BF81F0004142001FBF5FEA410346
:100AB00092EA030F7FEA226C7FEA236C6AD04FEA46
:100AC0001262D2EB1363C1BFD2184140484041408B
:100AD000B8BF5B42192B88BF704710F0004F40F43D
:100AE000000020F07F4018BF404211F0004F41F459
:100AF000000121F07F4118BF494292EA030F3FD025
:100B0000A2F1010241FA03FC10EB0C00C3F1200337
:100B100001FA03F100F0004302D5494260EB4000C6
:100B2000B0F5000F13D3B0F1807F06D340084FEA31
:100B3000310102F10102FE2A51D2B1F1004F40EB26
:100B4000C25008BF20F0010040EA0300704749008E
:100B500040EB000010F4000FA2F10102EDD1B0FA59
:100B600080FCACF1080CB2EB0C0200FA0CF0AABF4E
:100B700000EBC25052421843BCBFD04018437047EC
:100B800092F0000F81F4000106BF80F400000132F2
:100B9000013BB5E74FEA41037FEA226C18BF7FEAC9
:100BA000236C21D092EA030F04D092F0000F08BF0B
:100BB0000846704790EA010F1CBF0020704712F0F2
:100BC0007F4F04D1400028BF40F00040704712F131
:100BD00000723CBF00F50000704700F0004343F096
:100BE000FE4040F4000070477FEA226216BF0846CC
:100BF0007FEA23630146420206BF5FEA412390EA8F
:100C0000010F40F4800070474FF0000304E000BF84
:100C100010F0004348BF40425FEA000C08BF704735
:100C200043F0964301464FF000001CE050EA0102F9
:100C300008BF70474FF000030AE000BF50EA01020E
:100C400008BF704711F0004302D5404261EB4101FB
:100C50005FEA010C02BF84460146002043F0B64320
:100C600008BFA3F18053A3F50003BCFA8CF2083A45
:100C7000A3EBC25310DB01FA02FC634400FA02FC4E
:100C8000C2F12002BCF1004F20FA02F243EB020055
:100C900008BF20F00100704702F1200201FA02FCB7
:100CA000C2F1200250EA4C0021FA02F243EB0200AA
:100CB00008BF20EADC7070474FF0FF0C1CEAD052EE
:100CC0001EBF1CEAD15392EA0C0F93EA0C0F6FD0AF
:100CD0001A4480EA010C400218BF5FEA41211ED08D
:100CE0004FF0006343EA501043EA5111A0FB013179
:100CF0000CF00040B1F5000F3EBF490041EAD3714E
:100D00005B0040EA010062F17F02FD2A1DD8B3F1C9
:100D1000004F40EBC25008BF20F00100704790F038
:100D2000000F0CF0004C08BF49024CEA502040EA8A
:100D300051207F3AC2BFD2F1FF0340EAC250704750
:100D400040F400004FF00003013A5DDC12F1190F8E
:100D5000DCBF00F000407047C2F10002410021FA00
:100D600002F1C2F1200200FA02FC5FEA310040F118
:100D7000000053EA4C0308BF20EADC70704792F091
:100D8000000F00F0004C02BF400010F4000F013AC9
:100D9000F9D040EA0C0093F0000F01F0004C02BFC4
:100DA000490011F4000F013BF9D041EA0C018FE733
:100DB0000CEAD15392EA0C0F18BF93EA0C0F0AD039
:100DC00030F0004C18BF31F0004CD8D180EA01005F
:100DD00000F00040704790F0000F17BF90F0004FF8
:100DE000084691F0000F91F0004F14D092EA0C0FDA
:100DF00001D142020FD193EA0C0F03D14B0218BF6D
:100E0000084608D180EA010000F0004040F0FE40B2
:100E100040F40000704740F0FE4040F4400070474E
:100E20004FF0FF0C1CEAD0521EBF1CEAD15392EACD
:100E30000C0F93EA0C0F69D0A2EB030280EA010CBD
:100E400049024FEA402037D04FF0805343EA111156
:100E500043EA10130CF000408B4238BF5B0042F1B4
:100E60007D024FF4000C8B4224BF5B1A40EA0C0059
:100E7000B3EB510F24BFA3EB510340EA5C00B3EB8B
:100E8000910F24BFA3EB910340EA9C00B3EBD10F79
:100E900024BFA3EBD10340EADC001B0118BF5FEACB
:100EA0001C1CE0D1FD2A3FF650AF8B4240EBC250F4
:100EB00008BF20F0010070470CF0004C4CEA5020B5
:100EC0007F32C2BFD2F1FF0340EAC250704740F404
:100ED00000004FF00003013A37E792F0000F00F0F6
:100EE000004C02BF400010F4000F013AF9D040EA74
:100EF0000C0093F0000F01F0004C02BF490011F408
:100F0000000F013BF9D041EA0C0195E70CEAD153FF
:100F100092EA0C0F08D142027FF47DAF93EA0C0FE6
:100F20007FF470AF084676E793EA0C0F04D14B02CA
:100F30003FF44CAF08466EE730F0004C18BF31F07C
:100F4000004CCAD130F000427FF45CAF31F0004376
:100F50007FF43CAF5FE700BF4FF0FF3C06E000BF0F
:100F60004FF0010C02E000BF4FF0010C4DF804CD32
:100F70004FEA40024FEA41037FEA226C18BF7FEA42
:100F8000236C11D001B052EA530C18BF90EA010F44
:100F900058BFB2EB030088BFC81738BF6FEAE170D3
:100FA00018BF40F0010070477FEA226C02D15FEA6F
:100FB000402C05D17FEA236CE4D15FEA412CE1D0DB
:100FC0005DF8040B704700BF844608466146FFE7A2
:100FD0000FB5FFF7C9FF002848BF10F1000F0FBD84
:100FE0004DF808EDFFF7F4FF0CBF012000205DF87D
:100FF00008FB00BF4DF808EDFFF7EAFF34BF012002
:1010000000205DF808FB00BF4DF808EDFFF7E0FF9A
:1010100094BF012000205DF808FB00BF4DF808EDEB
:10102000FFF7D2FF94BF012000205DF808FB00BF4E
:101030004DF808EDFFF7C8FF34BF012000205DF830
:1010400008FB00BF4FEA40024FEA41037FEA226CEF
:1010500002D15FEA402C08D17FEA236C02D15FEA1B
:10106000412C02D14FF0000070474FF00100704753
:101070004FEA4002B2F1FE4F0FD34FF09E03B3EBA5
:1010800012620DD94FEA002343F0004310F0004FE5
:1010900023FA02F018BF404270474FF0000070473B
:1010A00012F1610F01D1420205D110F0004008BFDA
:1010B0006FF0004070474FF00000704742000ED2C2
:1010C000B2F1FE4F0BD34FF09E03B3EB126209D483
:1010D0004FEA002343F0004323FA02F070474FF039
:1010E0000000704712F1610F01D1420202D14FF0AE
:1010F000FF3070474FF00000704700BF40F0BF6006
:10110000024B40F40030D860704700BF00ED00E0B3
:10111000F0B401240178C37801F01F0294404E0915
:101120002BB90F4B203643F82640F0BC70470D4BCF
:101130004778DD688278E8430F23C0F30220C0F1CE
:101140000405C34007FA05F513402B43044A1B016D
:10115000DBB2114481F8003342F82640F0BC7047FE
:1011600000E100E000ED00E0037970B482790568E9
:1011700003F1804303F58233EC431AB3184A4179F3
:101180001668102906EA04061660566804EA060482
:1011900054601C6845EA04051D60006894686FEAA5
:1011A000000304EA03049460D46803EA0403D360F0
:1011B0000DD070BC01F1804303F582331A681043EF
:1011C000186070471A6814401C6070BC70479368C0
:1011D00070BC03439360D3681843D060704700BF6E
:1011E00000040140054B1A685B69034004D00242C9
:1011F00014BF0120002070471846704700040140CA
:10120000014B5861704700BF00040140024B034985
:10121000034A59605A607047002002402301674525
:10122000AB89EFCD324A10B4D368DC0726D4D3683B
:10123000590740D4D368DB0602D5032010BC7047A1
:101240002B4B1A6942F002021A6158611A6942F086
:1012500040021A61DA68D1072FD4DA68520745D400
:10126000DB6813F0100F0CBF0420032041F6FD7162
:101270001F4A10BC13690B40136170474FF43023B1
:10128000D468591EE4070AD4D468640711D4D2681C
:10129000D40608D4012BD3D1052010BC70470B46CF
:1012A0000029EDD1F8E70320002908BF052010BC74
:1012B00070470220F8E70220EFE74FF43022D968A8
:1012C000013ACC070CD4D96849070DD4DB6813F078
:1012D000100F14BF03200420002A08BF0520C5E713
:1012E000002AECD10520C1E70220F5E70220BDE786
:1012F00000200240304A30B4D368DD0722D4D368DE
:101300005C073CD4D368DB0602D530BC03207047B1
:10131000294A136943F0010313610180D368DB0795
:101320002FD4D3685D0745D4D36813F0100F0CBFDA
:101330000420032030BC41F6FE711F4A13690B40A4
:10134000136170474FF40053D5685C1EED070AD453
:10135000D5686D0711D4D268D20608D4012BD7D135
:10136000052030BC70472346002CEDD1F8E7032060
:10137000002C08BF052030BC70470220F8E702208F
:10138000EFE74FF40053D168013BCC070CD4D16890
:1013900049070DD4D26812F0100F14BF03200420A7
:1013A000002B08BF0520C5E7002BECD10520C1E7C5
:1013B0000220F5E70220BDE70020024030B4CC78DF
:1013C000E30648BF8B7804F00F0548BF1D430B8828
:1013D00013F0FF0F33D0482C026800F0F480282C63
:1013E00000F03381D90744BF22F00F022A43990746
:1013F00044BF22F0F00242EA0512590744BF22F42A
:10140000706242EA0522190744BF22F4704242EAA0
:101410000532D90644BF22F4702242EA05429906F9
:1014200044BF22F4700242EA0552590644BF22F03A
:10143000706242EA0562190600F104810260FF2B26
:101440004BD9282C42684AD0482C40F08E80D905D0
:1014500005D54FF4807122F00F022A4301619C05EB
:1014600006D54FF4007122F0F00242EA0512016144
:10147000590506D54FF4806122F4706242EA0522D4
:1014800001611C0506D54FF4006122F4704242EA66
:1014900005320161D90406D54FF4805122F470223F
:1014A00042EA054201619C0406D54FF4005122F442
:1014B000700242EA05520161590406D54FF4804199
:1014C00022F0706242EA056201611C0404D54FF407
:1014D000004365F31F720361426030BC7047D90559
:1014E00005D54FF4807122F00F022A4341619C051B
:1014F00006D54FF4007122F0F00242EA0512416174
:10150000590506D54FF4806122F4706242EA052243
:1015100041611C0506D54FF4006122F4704242EA95
:1015200005324161D90406D54FF4805122F470226E
:1015300042EA054241619C0406D54FF4005122F471
:10154000700242EA05524161590406D54FF48041C8
:1015500022F0706242EA056241611B04BCD54FF47F
:10156000004365F31F724361B6E7D90544BF22F01B
:101570000F022A439C0544BF22F0F00242EA051202
:10158000590544BF22F4706242EA05221C0544BF9B
:1015900022F4704242EA0532D90444BF22F4702298
:1015A00042EA05429C0444BF22F4700242EA05521A
:1015B000590444BF22F0706242EA05621C048BD5D4
:1015C00065F31F7288E7D90704D5012122F00F02C5
:1015D0002A430161990705D5022122F0F00242EA6F
:1015E00005120161590705D5042122F4706242EA0F
:1015F00005220161190705D5082122F4704242EA4B
:1016000005320161D90605D5102122F4702242EA83
:1016100005420161990605D5202122F4700242EAB3
:1016200005520161590605D5402122F0706242EA57
:101630000562016119067FF501AF802165F31F7214
:101640000161FBE665F31F72F8E6D90704D50121B5
:1016500022F00F022A434161990705D5022122F0A9
:10166000F00242EA05124161590705D5042122F42E
:10167000706242EA05224161190705D5082122F46A
:10168000704242EA05324161D90605D5102122F4A3
:10169000702242EA05424161990605D5202122F4D3
:1016A000700242EA05524161590605D5402122F0F7
:1016B000706242EA0562416119067FF5BFAE802182
:1016C00065F31F724161B9E6806880B2704700BF60
:1016D000C06880B2704700BF0161704741617047C8
:1016E0000AB9416170470161704700BF0028194B7A
:1016F00000F44012B4BFDB695B68B2F5401F30B440
:1017000084B21ED0C20213D50322C0F30345AA40FF
:1017100023EA020343F0706319B1420D12019440B1
:1017200023430C4A0028B4BFD361536030BC7047D8
:10173000420D120104FA02F223EA020343F070633D
:10174000EAE7044D23F070636A6822F070626A6011
:10175000E2E700BF0000014010B40F2401F0FC03D9
:1017600003F1804303F5803301F003019A68890097
:101770008C4022EA04029A609A6800FA01F111434F
:10178000996010BC704700BF014B1860704700BFE4
:10179000D8004242214A30B4536803F00C03042BB2
:1017A00033D0082B20D01E4B03601C4A1D4C5168BF
:1017B0001D4DC1F30311615CCB4043605168C1F31F
:1017C0000221615C23FA01F181605168C1F3C221F9
:1017D000615CCB40C3605268C2F38132AA5C30BC0A
:1017E000B3FBF2F30361704753685168C3F383435B
:1017F000C90303F102030BD5526892034CBF0B4A95
:101800000B4A02FB03F30360CFE7094B0360CCE70D
:10181000084A02FB03F30360C7E700BF0010024061
:1018200000127A000400002000000020801A060048
:1018300000350C0000093D00044A936919B923EAF8
:10184000000090617047184390617047001002409B
:10185000044AD36919B923EA0000D06170471843DC
:10186000D061704700100240274A0388904270B44C
:101870009BB212D002F5006290420ED0B0F1804FC0
:101880000BD0A2F59832904207D002F580629042C8
:1018900003D002F58062904203D14A8823F070039E
:1018A00013431A4D8C88A8420A8815D005F5806527
:1018B000A84211D0CE8823F440739BB205F58C3535
:1018C0003343A8420380848502850CD170BC0B7A17
:1018D0000386012383827047038084850285012368
:1018E00070BC838270470A4B9842EFD003F5406387
:1018F0009842EBD003F580639842E7D003F580630C
:101900009842E3D0EBE700BF002C014000100040FC
:1019100000340140038CF0B423F001031B041B0CC2
:101920000D890384028C4E8822F0020284881204FE
:10193000038B3543120C23F073032A43164D1B040B
:101940000E881B0CA842A4B243EA06030FD005F58B
:101950000065A8420BD005F54065A84207D005F503
:101960008065A84203D005F58065A8420DD14E8957
:1019700022F008028D89CF8932438E8824F4407486
:1019800022F004023D4332432C43C9888480038300
:10199000F0BC818602847047002C014000234FF682
:1019A000FF72036042600372704700BF038829B969
:1019B00023F001031B041B0C0380704743F0010359
:1019C00003807047B0F8443021B9C3F30E03A0F888
:1019D0004430704743F40043A0F84430704700BFE0
:1019E00083891AB923EA01018181704719438181F2
:1019F000704700BF038B23F008031B041B0C194323
:101A000001837047C94389B20182704730B50D46E2
:101A10000446038ACA889BB223F4405313438A893D
:101A200003828089234B8988034028890B43698975
:101A300003430B43A381A38A87B09BB223F4407373
:101A4000134301A8A382FFF7A5FEDDE903311A487D
:101A50002A68844208BF0B46A18903EB830309046B
:101A60004CBF5200920003EB8303B3FBF2F36422FA
:101A70001248A589A0FB03C1490902FB11332A04BE
:101A80004FEA01110AD41B013233A0FB0323C3F335
:101A900043130B439BB2238107B030BDDA003232CF
:101AA000A0FB0232C2F3421242EA01039BB223813D
:101AB00007B030BDF3E9FFFF003801401F85EB514F
:101AC000838929B923F400531B041B0C83817047BD
:101AD00043F4005383817047012310B401F01F04C5
:101AE000C1F34211012903FA04F30FD002290CBFFC
:101AF000103014302AB9026810BC22EA03030360D4
:101B00007047026810BC1343036070470C30F1E764
:101B1000C1F30801818070472DE9F04108271025A5
:101B20004FF0030882B0144C02AE38460121FFF793
:101B300083FE26F8045D314620468DF807508DF867
:101B40000680FFF73BFC38460121FFF775FE314662
:101B500020468DF806808DF80750ADF80470FFF729
:101B60002DFC29462046FFF7B9FD39462046FFF7F0
:101B7000B5FD02B0BDE8F081000C014010B507488A
:101B8000FFF7A6FDC0F300140448FFF7A1FD03070B
:101B900048BF44F00204204610BD00BF000C0140C5
:101BA00010B5054C10212046FFF798FD2046BDE8F2
:101BB00010400821FFF792BD000C014038B50F4DD1
:101BC0006B783BB9044630B142060DD4230610D4DD
:101BD00000232B7338BD10210948FFF77FFD082132
:101BE0000748FFF77BFDF3E710210548FFF774FD79
:101BF000ECE708210248FFF76FFDE9E70814002031
:101C0000000C014038B5124C2378022B04D0054655
:101C100004F0BAFA637803B138BD35B16A060DD461
:101C20002B0610D40023237338BD10210948FFF779
:101C300055FD08210748FFF751FDF3E7102105483E
:101C4000FFF74AFDECE708210248FFF745FDE9E709
:101C500008140020000C014010B40D4C2346C4F1C0
:101C6000006101F5FE3104F580605A18127803F81E
:101C7000012B8342F9D123780A2B06D04FF48062DE
:101C8000FF21034810BC09F0CCBC10BC704700BF5A
:101C90006C0F0020014B185C704700BF6C0F0020D8
:101CA000014B1954704700BF6C0F00202DE9F04123
:101CB0000746002A3FD00023204D013828448E18C3
:101CC00011F8014B7BB904EBD3138E42DBB200F861
:101CD000014FF5D117441A48EB55FFF7A3FA042832
:101CE00008D0BDE8F081631C8E4200F8014FDBB2E2
:101CF000E6D1EFE7114C134FC5F1006604F580689B
:101D00007F1B06F5FE3625464FF6FF7335F8021B9E
:101D1000A019994204F1040401D0FFF7EBFA4FF641
:101D2000FF732988E019994201D0FFF7E3FA44458F
:101D3000E9D1BDE8F0811346004DCCE76C0F0020DF
:101D400000FC0108FEFB0108F0B4F2B10024104FC2
:101D50004D1E3D44861815F8013F74B900F8013B4B
:101D600003EBD4148642E4B2F5D11144785C001B35
:101D7000B0FA80F0F0BC4009704700F8013B8642A1
:101D800003F10103DCB2E6D1EFE71446004FEDE7C3
:101D90006C0F002008B500215022074809F041FCD3
:101DA0000649002005F0CAFE00B108BD0720BDE8C5
:101DB000084004F0C9BC00BF6C1300209813002039
:101DC0000149024807F02ABF301400208813002080
:101DD0002DE9F04F0746DFF81092482200219DB010
:101DE000484609F01EFC7D4B03CB1C889A78C9F845
:101DF0000100C9F80510A9F8094089F80B203B78C3
:101E0000242B00F03D82002209924FF00008BD5CB7
:101E10008DF84F204446CDF82080CDE90688002D6E
:101E200000F0FD80A5F14106F3B2192B00F27C838E
:101E3000531C0DF14F0114AA38468DF84F3002F0B3
:101E40001FF9002800F07583DDF850B05846FFF701
:101E500035F95FFA80FA5046FEF7DAFE0146584639
:101E6000FEF720FE5E49FEF727FF09F051FD472DE2
:101E700082B228D04D2D40F09280002A40F06C8331
:101E8000BAF11E0F00F2F0810123564A03FA0AF359
:101E9000134240F0AB8013F4607F40F0B68113F042
:101EA000380F00F0E181BAF1040F00F02883BAF195
:101EB000050F00F04A83BAF1030F00F02E834FF4B0
:101EC00080520C239FE0BAF1650F00F2CD81DFE86C
:101ED0001AF031023102310231025002CB01CB0142
:101EE000CB01CB01CB015A02CB01CB01CB01CB0102
:101EF000CB01CB01790279027902EE01EE01CB012F
:101F0000CB01CB01CB01CB01CB015A02CB015A0251
:101F1000CB01CB01CB01CB01CB01CB01CB013102FA
:101F2000CB01E001CB01CB01F401CB01CB01CB0113
:101F3000CB01CB01F401CB01CB01CB015002050257
:101F400005020502050205020502CB011F02CB01B5
:101F5000CB01CB01CB01CB01CB01CB01CB01CB0121
:101F6000CB01CB01CB01CB01CB01CB01CB01CB0111
:101F7000CB010B02CB01CB01CB01CB01CB01CB01C0
:101F8000CB01CB01CB01100210025A021902190237
:101F9000CB01CB01CB01CB01CB017F027F02192EFC
:101FA00000F26281DFE816F0180260016001600152
:101FB00060012802600160019B0238024A0253025C
:101FC0006001580260016002600165026A027002ED
:101FD0006001600160017D02870291026C130020A4
:101FE0000000C84207000040BC130020BAF1000FF7
:101FF00000F03F81BAF1010F00F017814FF4006249
:102000000B2389F808A044FA03F3DB0700F1A6824A
:1020100014439DF84F20BD5C002D7FF403AF069B59
:1020200023B1079B002B08BF0223079318F0200F52
:1020300005D0B94BD9F824209A4200F3D382099BEA
:10204000002B00F0A18218F0010F00F0DD8299F85A
:102050000330012B00F0298318F4807F00F0AB825D
:1020600099F80050042D00F0DA82642D00F0A88267
:10207000652D08D108F0C003C02B40F0CA8228F0BB
:10208000C0081FFA88F899F80530002B00F0158376
:10209000012B40F01B8300260227CDE90D630523A9
:1020A0000C970B9399F80330012B00F0C982079B22
:1020B000032B00F0EF82DFF878B20DF1600A9BE8A5
:1020C0000F008AE80F00A00510D599F80700062830
:1020D00000F28183914B9B79834207D0514605F0F2
:1020E0002DFD002800F0868399F800500A2D00F09D
:1020F000A0805C2D40F0F382069B002B00F06D83E6
:10210000864AD907D56C40F1A283844B1899D869C7
:10211000FEF7C8FCD9F83810FEF7C4FCC9F838003F
:10212000069B9A0740F1AB847C4B1999186AFEF71D
:10213000B9FCD9F83C10FEF7B5FCC9F83C00069B89
:102140005B0740F15983754B1A99586AFEF7AAFC50
:10215000D9F84010FEF7A6FC2946FEF7A3FCC9F803
:102160004000069B1D0740F1BE846C4B1B99986A8A
:10217000FEF798FCD9F84410FEF794FCC9F8440027
:1021800000230A9399F80150502D00F0A984079B71
:10219000022B00F06183099B079913F001020DBF28
:1021A0005F4B28F021081FFA88F308EA030319B1EE
:1021B00023F470581FFA88F3002B40F01083CDE908
:1021C00015331793002A00F06B8324F04904002C88
:1021D00040F0BF8499F80030352B02D0002B40F03E
:1021E000B8844E4A15A8117A537AD2680B434D49E8
:1021F0008DF85C30169200F0C1FF0446A8BB4A4B34
:102200004A4D0FCB85E80F002FE0BAF1080F00F020
:102210006F81BAF1090F00F09181BAF1070F00F058
:1022200075814FF400520D23EDE64FF400620B234D
:10223000E9E6069B002B00F0D08218F0500F00F06A
:10224000E881D9F82800FEF739FFC0B2062800F26D
:10225000C28299F82030142B00F08982022B03D11E
:1022600018F0800F00F08382142420461DB0BDE8D2
:10227000F08F03234FF4006289F808300B23C2E685
:102280000123002289F8013089F8022009930322F2
:10229000BBE50721002A40F05F8144FA01F3DA0729
:1022A00000F15C8101238B401C43A4B2B1E6CAF16A
:1022B000150A89F803A00621ECE7079B002B40F0E4
:1022C0009082BAF1310F00F070810A2ACCD101233B
:1022D00089F80630032308210793DEE7AAF1360ABE
:1022E00089F807A00921D5E75023012189F8013099
:1022F000D0E7002A40F03F81AAF15A0A89F804A0E9
:102300000321CAE7CAF15E0A89F802A00521C1E7E4
:10231000002AA9D10A21C0E7809698006C130020FA
:10232000DEFCFFFFBC130020F41300208813002004
:1023300098130020079B002B40F05382BAF1260F20
:1023400089F801A040F06781A2F114039BB21E2B13
:102350008AD8B74921FA03F3D90785D5B54B0121AE
:10236000A3FB0223DB08763B89F8013002230793A5
:1023700093E7BAF11C0F89F800A01AD0BAF11E0F2A
:1023800017D0002186E7002A40F0EA80079B002B47
:1023900040F02782BAF11C0F89F800A000F03681C6
:1023A000BAF11E0F00F0328101230793BAF15C0FDE
:1023B000E7D112B10A2A7FF457AF504489F80000E0
:1023C00000216AE7AAF1110A89F805A0022161E754
:1023D00089F800A00F215DE7069B4FF4005543F0FC
:1023E000080306930D23C9F844B048FA03F3D8074D
:1023F0001FD445EA08080CE601250023C9F80CB0F3
:1024000048FA03F3DE0714D458460021FEF7F2FD24
:102410000028EED0042428E7089BC9F814B043F044
:1024200002030893022348FA03F3D8074FF0040588
:10243000DFD5192420461DB0BDE8F08F089BC9F8F0
:1024400018B043F00403089308250323CDE789F867
:1024500020A010250423C8E75846FEF709FE2025D2
:10246000C9F824000523CBE7C9F828B04025062386
:10247000C6E7C9F82CB080250723B6E7C9F830B005
:102480004FF480750823BBE76B495846FEF7D0FD33
:10249000002840F0FA8289F834A04FF4007509232F
:1024A000AEE7069BC9F838B043F0010306934FF43A
:1024B00080650A2399E7069BC9F83CB043F0020304
:1024C00006934FF400650B238FE7069BC9F840B0D5
:1024D00043F0040306934FF480550C2385E7089BD3
:1024E000C9F810B043F001030893022501237CE7EB
:1024F00040234FF4005289F809300D2383E520234F
:102500004FF4805289F80A300C237CE580234FF485
:10251000005289F809300D2375E510234FF48052DD
:1025200089F80A300C236EE5012420461DB0BDE871
:10253000F08F022420461DB0BDE8F08F00234FF439
:10254000005289F809300D235DE500234FF48052D5
:1025500089F80A300C2356E5172486E6152484E60C
:10256000BAF11C0F89F800A03FF424AFBAF11E0F96
:102570007FF41CAF1EE70A2A7FF476AEBAF15A0F39
:102580003FF472AE042188E699F80230012B2BD07B
:102590002A4A5378002B7FF45FAD18F0010F7FF4C7
:1025A00056AD1369C9F80C3056E589F80630032397
:1025B0000821079371E6214BDB68C9F830304FE5FD
:1025C00008F05003502B24D108F49073B3F5907F9A
:1025D0001FD108F08103812B1BD1A3F2732308EADA
:1025E000030850E51B2440E6079B022B7FF434AD23
:1025F00099F80130502B3FF42FAD002B3FF42CAD58
:1026000018F0010F7FF428AD16242EE6012307935E
:10261000D3E61C2429E60223012107933AE618F0A9
:10262000400FF6D028F040081FFA88F82BE500BFCD
:1026300001041040CDCCCCCC00007F436C130020B3
:10264000069BD80707D5D9F838009249FEF734FB26
:10265000069BC9F83800990707D5D9F83C008D4981
:10266000FEF72AFB069BC9F83C005A0707D5D9F8A4
:1026700040008849FEF720FB069BC9F840001B0775
:102680007FF515ADD9F844008249FEF715FBC9F86E
:1026900044000CE599F80630012B7FF40CAD069B45
:1026A000042B3FF408AD2524DFE5D9F80C00794967
:1026B000FEF702FBC9F80C00CEE401261F46CDE967
:1026C0000C3603230B9302230E93EBE4062301271E
:1026D00002260B930023CDE90C760E93E2E4079BD0
:1026E000032B33D0069A002A30D06B4999F8043076
:1026F000C96C0A91002B40F0FC81D00700F12C82BC
:10270000654BDB69C9F83830069B990700F1618495
:10271000614B1B6AC9F83C30069B5A0700F1C68121
:102720005D4B5B6AC9F84030069B1B0740F1D381C3
:10273000352D00F08480D9F844101B98FEF7B4F9C9
:10274000554B996CFEF7B0F9C9F844001E2D00F006
:102750009F81352D73D01C2D45D099F80150502DF7
:1027600072D1069B002B40F0BB810A9313E5002831
:1027700000F001820138C3B218460A93474905F0B8
:10278000DDF9002836D099F82030434A142BD56C57
:10279000069B00F06982DA0744BFD9F83830C9F8DF
:1027A0001030069B9B0744BFD9F83C30C9F8143061
:1027B000069B5D0744BFD9F84030C9F81830069B26
:1027C000180703D5D9F84430C9F81C3028F0500850
:1027D0001FFA88F8D6E41D2447E51A2445E5242489
:1027E00043E5182441E52D49062005F0A7F9002806
:1027F00040F05581072438E5274B5B6CC9F8403021
:10280000AFE4352D00F01C82234BD9F83810D8697D
:10281000FEF74AF9069BC9F838009B0700F176815C
:102820001D4B1B6AC9F83C30069B580740F11082CB
:10283000352D40F07781069B1A0740F14C8199F8BD
:102840000150012D00F2828100230A939FE4124B74
:10285000DB6BC9F8383063E4ADB10021D9F80C0066
:10286000FEF7BEFB00287FF4CFAE8C2D00F08583F1
:1028700000F27983022D00F0D382032D00F0D48280
:10288000012D7FF488AC069B002B079B08BF00231B
:10289000079380E43333CB416C130020CC1300202A
:1028A000B74BB84A93F85850547A15F0020514D033
:1028B00099F80130013B022B03D9099B43F04003F7
:1028C0000993069B1BB1079B022B00F07982099BA1
:1028D000102C03F0400500F06583AA49D9F82420A4
:1028E00099F802308A614B7013B108238DF85C307F
:1028F000D9F80C30A34AD9F83060D068314613615A
:102900001593FEF76DFB002800F0A780099B9B063E
:1029100000F1A38005B9169699F80A0099F83430A9
:10292000984DA0422B7505D0169905F0B1FC99F889
:102930000A406C72934D9DF85C2099F809002B7A3F
:10294000144383428DF85C4009D0FFF75BF999F896
:102950000900002840F06D819DF85C40287299F8CC
:1029600000300443042B8DF85C4000F03082642B6F
:1029700000F0C381652B00F0B28199F803308149E2
:1029800099F805208B70079B0A71032B00F02081BA
:102990007C4D99F80740AB79A34206D09AE80F0026
:1029A0008BE80F00AC7107F02FF999F8003099F817
:1029B00004207449262BCA7000F0C08140F21E81A9
:1029C0005C2B00F0CB81662B00F0BD81282B03D15E
:1029D0006D49072004F0DAFF99F80130694A502B5D
:1029E000137003D0079A022A00F0C08199F80840BA
:1029F000644BDC71002C3FF438AC03F0C5FB614B39
:102A0000DB79032B00F0D1810122002446F26440DF
:102A100064215C4D5D4B2A801A782C71022AEC707F
:102A2000AC712C811881997210D005F12C012046CF
:102A300005F084F800283FF4DDAE07F0E5F8204605
:102A4000002105F099FB2046FFF7B8F8082003F0B5
:102A5000A9FE00244B4BDC7107E46CB1099B1F06F7
:102A60000AD4002D00F0AC822046002105F010FCB5
:102A7000444BD9F830605C7A424BDE604AE7414B08
:102A80001B6CC9F83C30FFF75ABB2624FFF7EDBB9F
:102A90003F49072005F052F800283FF4ABAE069BF3
:102AA000002B77D10A930793FFF775BB352D3FF4C1
:102AB0003CAED9F840101A98FDF7F6FF314B596C2F
:102AC000FDF7F2FF0A99FDF7EFFF069BC9F84000FA
:102AD00018073FF530AE2B4B9B6AC9F8443035E6FA
:102AE0001F24FFF7C2BB274B9B6CC9F84430FFF78C
:102AF00047BBD1073FF585AE224B9207DB69C9F88A
:102B000038307FF58DAE352D00F09E801D4BD9F805
:102B10003C10186AFDF7C8FF069BC9F83C0059072E
:102B200040F19680174BD9F84010586AFDF7BCFF6A
:102B3000069BC9F840001B07CDD5124BD9F84410AD
:102B4000986AFDF7B1FFC9F84400FFE51E24FFF7BE
:102B50008CBB1024FFF789BB352D3FF4D5ADD9F8D8
:102B600038101898FDF7A0FF064BD96BFDF79CFFB6
:102B7000C9F83800C8E599F807300A931846FDE50A
:102B8000441700206C130020881300200814002034
:102B9000CC130020DD0704D49B4BDB69C9F810304F
:102BA000069B980704D4984B1B6AC9F81430069BFF
:102BB000590704D4944B5B6AC9F81830069B1A076E
:102BC0003FF5DEAA904B9B6AC9F81C30FFF7D8BAD4
:102BD00099F806304B7113B90023C9F84030D9F881
:102BE0004040894B2146D86CFEF7FAF900287FF463
:102BF000CFAE854BDC6407F007F8C9E61C2B00F06C
:102C0000ED801E2B00F0EA800A2B7FF4E5AE0A9DD2
:102C10007E4C2846214604F0B9FE7B4B9B79AB42A3
:102C20007FF4DAAE94E80F008BE80F0006F0ECFFBB
:102C3000D2E6754A9DF85C40137A184310728EE60E
:102C4000069B99077FF5ECAD069B5B073FF5F3AD5F
:102C50006D4B5B6AC9F84030069B1A077FF53BAFA6
:102C6000352D7FF46AAFEAE5D90709D5D16BD06974
:102C7000FDF718FFD9F83810FDF714FFC9F8100058
:102C8000069B9B070AD5604B196C186AFDF70AFF73
:102C9000D9F83C10FDF706FFC9F81400069B580749
:102CA0000DD5594B596C586AFDF7FCFED9F8401008
:102CB000FDF7F8FE2946FDF7F5FEC9F81800069B5A
:102CC00019077FF583AD504B996C986AFDF7EAFEC2
:102CD000D9F84410FDF7E6FEC9F81C0076E5D9F8EE
:102CE0002C00FEF7EBF9C4B2D9F82800FEF7E6F99C
:102CF0002146C0B207F084F93FE6D9F83000FEF76C
:102D0000DDF9C5B2D9F82800FEF7D8F9C4B2D9F870
:102D10002C00FEF7D3F9C3B2D9F80C000193FEF7EB
:102D2000CDF9C0B22B46009099F8242099F82010D4
:102D3000204607F0DFF899F800301BE634490620FA
:102D400004F024FE48E60023324AA2F13C01CB63A2
:102D5000C2E90133D36006F057FF3DE62D4C2E4B00
:102D60000FCB84E80F0006F04FFF35E6012B00F093
:102D7000F981002B00F0E981023B012B40F2CE816A
:102D80009DF85C30244D43F00403099A15A92846A8
:102D90008DF85C3001F0B0F8002840F0A6811C4CA2
:102DA00095E80F0084E80F0020E61C4B1B78022BEF
:102DB0003FF44FAE082006F0D3FF02F0F7FF48E6DD
:102DC000099B03F0400543F08003099385E5D9F89A
:102DD000280001F04FF899F80030C8E59DF85C3004
:102DE00043F001038DF85C30079B002B40F002811B
:102DF000064D074C284615A900F004FE95E80F0083
:102E000084E80F00E8E500BF6C130020CC1300201D
:102E100088130020A8130020F413002008140020B9
:102E2000099B43F004030993069B002B3FF4D5ACA8
:102E30000B9A134200F0EE80B04D09EB870205EBD0
:102E40008703D969906BFDF72DFE05EB860309EB2F
:102E500086020F90D969906BFDF724FE18F080056B
:102E6000109000F0DA8028F080081022A449A548CC
:102E70001FFA88F808F0C6FB002800F0908099F847
:102E80000330D9F82C00012B04D19F49FDF714FF22
:102E9000C9F82C00D9F82C100846FDF70DFF4FF0AB
:102EA0008141FDF709FF0F9B054619461846FDF7BE
:102EB00003FF01462846FDF7F5FD109B0546194620
:102EC0001846FDF7F9FE01462846FDF7EBFD002107
:102ED0000546FEF78FF8002840F09180284608F05C
:102EE0007BFD109905460F9801F096F905F1004514
:102EF00001462846FDF794FF99F801300546032B5B
:102F0000D9F82C3008BF00F100450021184608937D
:102F1000FEF770F8089B28B103F1004305F1004566
:102F2000C9F82C3010992846FDF7C6FE01460F98C7
:102F3000FDF7B8FD4FF07C51FDF7BEFE023709EBFF
:102F40008707B8600F992846FDF7B6FE1099FDF780
:102F5000ABFD4FF07C51FDF7AFFE023609EB860664
:102F6000B060FFF718B98E2D07D002D38F2D7FF4F4
:102F700012A9099B43F01003099305F17203DBB218
:102F8000012B40F28F80069B002B3FF426AC1022D1
:102F90005B495C4808F036FB00287FF4FCA821243C
:102FA000FFF763B9554B1B78013B022B2AD8002D44
:102FB0003FF493AC099B402543F0200309938CE434
:102FC0003146204605F064F94C4BD9F830605C7A04
:102FD00052E5352D3FF4A1ABD9F83C101998FDF717
:102FE00063FD464B196CFDF75FFD069BC9F83C007D
:102FF000FFF793BB15A9424800F004FDF8E6222430
:10300000FFF733B9002D7FF468AC099B43F0200330
:10301000099362E42024FFF728B9089B0B9A134216
:1030200060D099F8033028F00E08012B1FFA88F8B9
:103030003DD0B51C09EB8505A9681098FDF732FD58
:103040000646023709EB8707B9680F98FDF72AFD96
:10305000314601F0E1F8A9680646B86801F0DCF8ED
:10306000074630463946C9F82C70FDF71BFD20F0A5
:10307000004528462549FDF7DBFF00283FF48BA8D3
:103080004FF07C512846FDF7D3FF002887D1204917
:103090003846FDF711FE2946FDF7ACFF00283FF446
:1030A0007AA87CE7099B43F0080309936BE7194B67
:1030B0000B9626461C46144A089B43FA05F111F06C
:1030C000010F05F1010506D0114620681192FDF7A8
:1030D000F3FD119A2060042D04F10404ECD1344670
:1030E0000B9EA6E72324FFF7C0B801287FF47EAC2F
:1030F0000949044806F092FD78E400BF6C130020F3
:10310000F4130020881300203333CB410AD7A33BAC
:103110006F12833ACC13002030140020099B154D08
:10312000C3F3800304930E9B134C03930D9BD9F8B8
:103130002C6002930C9B15A901932246A5F128034C
:103140002846009600F094FC2AE69DF85C30094D74
:1031500043F0010315A928468DF85C30064C00F0B9
:1031600051FC1DE6034D15A9284600F04BFC024C0E
:1031700016E600BFF41300208813002070B5054642
:10318000037AC86843F00403124A28602B7292F84D
:10319000583001F138049B0603D5204606F062FD45
:1031A000A8B90D4E2046294600F02CFC347814B105
:1031B0000024204670BD01F03DFA0028F8D02023FD
:1031C000337005F0A1FC05F01DF9204670BD0F24F9
:1031D000204670BD441700200814002030B501219E
:1031E00085B009204FF47044FEF726FB48230322E4
:1031F00004A9214D21F8104D20488DF803308DF899
:103200000220FEF7DBF895F858301B0706D44FF480
:1032100080721B4BC3F8842005B030BD642000F0E1
:10322000EBFF0C210120FEF797FA0D210120FEF79C
:1032300093FA0E210120FEF78FFA0F210120FEF7ED
:103240008BFA95F85830002213F0400F14BF082174
:103250000C21012302A88DF80D108DF80C208DF89B
:103260000E300294FDF780FF064B04A840F80C3D99
:10327000FDF74EFF05B030BD44170020000C0140A3
:1032800000E100E0280202014FF48072014BC3F814
:103290008420704700E100E070B51B48FEF714FA87
:1032A00000240546184E3046FEF70EFA01348542DA
:1032B000E4B205D03046FEF707FA01240546F2E7EE
:1032C000092CF0D9114B93F858305B065CBF85F49C
:1032D0007045ADB2ADB10E4B19885A880D4214BF7E
:1032E0000120002015429A88DB8818BF40F00200B8
:1032F000154218BF40F004001D4201D040F0080004
:1033000070BD284670BD00BF000C0140441700206E
:1033100024CB000808B54FF48050FDF763FF88BB4D
:103320004FF40050FDF75EFF38BB4FF48040FDF7CF
:1033300059FFE8B94FF40040FDF754FF98B94FF436
:103340008071134A134BC2F884111B78012B02D0F1
:10335000114B1B7803B108BD00F060FEBDE80840CA
:10336000012006F011BD4FF40040FDF749FFE6E7EC
:103370004FF48040FDF744FFDCE74FF40050FDF7C9
:103380003FFFD2E74FF48050FDF73AFFC8E700BF98
:1033900000E100E008140020401400202DE9F04F67
:1033A000DFF85CA293B09AF8013013B113B0BDE816
:1033B000F08F054606248D49069005F00105086842
:1033C0004968CDE90C3309AA0B9305F0FF0303C24A
:1033D0008DF834400793002D40F0E6800024DFF89C
:1033E0002492069BC3F3400304935BB18049D9F850
:1033F0003400FDF761FC064601462046FDF70EFE4F
:1034000000B93446069BC3F3800303935BB178494C
:10341000D9F83800FDF750FC064601462046FDF776
:10342000FDFD00B93446069BC3F3C00305935BB1B1
:103430006F49D9F83C00FDF73FFC0646014620469F
:10344000FDF7ECFD00B93446042301270193D9F8B8
:103450006060EBB2DFF8B081029366490EA806F017
:10346000DDFB029B002B00F043810021B9F85A30AC
:10347000604ADD07116040F14F81002F40F04F811D
:103480000E9402230120BDF82450049A7AB1002042
:10349000B9F85A2057494860900740F13281002F0F
:1034A00040F032810F941846BDF826201543039B47
:1034B00083B10021B9F85A304E4A01309160590762
:1034C000C0B240F13081002F40F030811094BDF83F
:1034D00028301D43059B83B10021464AB9F85A3074
:1034E0000130D1601A07C0B200F112810FB904F1A6
:1034F0000044BDF82A3011941D43FDF785FB08F008
:103500006BFA3146AAF80650FDF7D6FB0BA90B90D3
:103510000EA801F07DF904238AF8043005F0F4FACE
:1035200004F070FF344E002F4ED105F0EDFA98F8FC
:10353000003013F0340F40F0B1802B07F3D105F0C9
:103540007BF9B9F8640000F057FE87F00105002F01
:1035500040F0D2802949D9F86800FDF7ADFB044658
:10356000D9F85C60019B2F46013B13F0FF030193E8
:103570007FF473AF079B13B11E4B019A1A60049B33
:1035800013B100231B4A5360039B13B10023194A54
:103590009360059B13B10023164AD36000238AF879
:1035A000043013B0BDE8F08FDFF858901049D9F817
:1035B0003000FDF781FB00210446FDF72FFD0028B8
:1035C0007FF40FAF00240CE73046FEF77DF80024AF
:1035D00083463046FEF778F801345845E4B215D0FA
:1035E0003046FEF771F801248346F2E72CCB000841
:1035F0000000C0BF30140020000C01400000A040BB
:1036000008140020441700201D140020092CE0D9C4
:1036100099F858305B065CBF8BF4704080B200288C
:1036200032D05F4A13885288184214BF0123002306
:1036300010425B4A18BF43F0020392881042584A76
:1036400018BF43F00403D2881042BDF8242018BFED
:1036500043F00803154202D0DC0748BF9543BDF88C
:103660002620154202D0980748BF9543BDF8282070
:10367000154202D0590748BF9543BDF82A2015428C
:1036800002D0DB0818BF9543AAF8065005F03CFAB3
:1036900098F8003013F0340F3FF44FAF98F8004023
:1036A000E4B2E50646D4A0060AD477B162076ED428
:1036B0003C4B1B78002B6ED1042006F05BFB3EE7F1
:1036C000072006F061FB002FF0D13748FDF7FCFF23
:1036D0003E460446344D2846FDF7F6FF0136A0422B
:1036E000F6B22BD02846FDF7EFFF01260446F2E79D
:1036F0001D4618460123C8E6D9F86840D9F860602D
:1037000030E7002F7FF4CEAE04F100420F92CAE6FC
:10371000002F7FF4ECAEECE6002F7FF4B1AE04F1A5
:1037200000430E93ADE6002F7FF4D0AE04F10043CA
:103730001093CCE6062006F027FBB4E7092ECAD981
:1037400099F8583059065CBF84F4704080B2002864
:10375000AED0134A13885288184214BF01230023A5
:1037600010420F4A18BF43F00203928810420C4ADD
:1037700018BF43F00403D2881042069A18BF43F0E2
:1037800008031A4294D0082006F0FEFA90E70920B8
:1037900006F0FAFA8CE700F041FC02F007FB05E6C0
:1037A00024CB000840140020000C014010B506F0A6
:1037B00059FAC8B101230D4C2078E370082808D0CD
:1037C00000F02CFC022006F0DFFABDE8104002F009
:1037D000EDBA06F0C5FA02E02378002BF0D002F033
:1037E000E5FA6378002BF7D010BD00BF0814002065
:1037F00070B5064686B04FF44070FDF77FFC01259A
:10380000272301A8ADF804308DF80750FDF780FCA0
:1038100029464FF48020FEF71BF829460920FEF7C1
:103820000BF84FF48061182203231A4CADF80010F6
:10383000204669468DF803208DF80230FDF7BEFD65
:103840004FF40062042369462046ADF800208DF84D
:103850000330FDF7B3FD00234FF44022CDE90332DE
:10386000A4F54444ADF81430A389204643F00C037A
:10387000029602A9A381FEF7C9F82A46204640F223
:103880002551FEF729F929462046FEF719F906B019
:1038900070BD00BF000C01402DE9F04F012183B045
:1038A0001020FDF7C9FF4FF400500222102302A997
:1038B00021F8040D00F1804000F570408DF80620DD
:1038C0008DF80730FDF77AFD07F050FB07F05AFB43
:1038D00007F000F9FDF79AFCFEF7BEF92A4A46F216
:1038E000644B13684FF0640A23F00403136003F081
:1038F000C5FE04F09FFA05F03FF805F0E3FE4FF433
:103900001650FFF775FF0020014604461F4D204F5B
:10391000C5E90000C5E902001E4EDFF88890DFF817
:1039200088801D4D1D4B89F8004088F800401C70B0
:103930001B4BBC603C607C60C7E90344A7F808B03F
:1039400087F80AA01C703970C6E90044C6E9024431
:103950002C7003F0EFFFFEF71DFA04F007FBFEF7F3
:10396000DBF8FFF73BFC01F0ABFC00F01FFE04F0BE
:1039700063FF01F0A1F9FEF723FA02F071FF02F0F4
:1039800027FE3978CEE700BF10E000E030140020B9
:1039900008140020201400201C14002040140020D3
:1039A000041400201E1400201D14002042F22831AF
:1039B000094B30B4002501241A4601FB00F0586081
:1039C0009D601C60136803F00113012BFAD030BC1A
:1039D000002313609360704710E000E010B5074CBF
:1039E0004FF4005122780648FDF77AFE237813F150
:1039F000FF3318BF0123237010BD00BF1400002047
:103A000000100140F8B5174D174C95F858200E4698
:103A100091062378074604D5202B0AD0FFF7C6FE6F
:103A20002378022B05D1F8BD00F032FE38B101F049
:103A3000B5FC02F0BBF96378002BF5D0F3E738460C
:103A4000314600F0E5FE0028EDD195F858309A0790
:103A5000E9D5337ADB06E6D571681020BDE8F84079
:103A600004F016BC441700200814002000000000D9
:103A70002DE9F04F1F4691B09DF86C40834653F8F6
:103A80002450A300D6180F90FB180B91284652F82B
:103A90002410069202960C93FDF706F89DF87060CC
:103AA000069A57F82680B30052F8261082461F4423
:103AB0000490D318404603930D97FCF7F5FF514649
:103AC000814605905BF82400FCF7ECFF494604466C
:103AD0005BF82600FCF7E6FF05F1004506462146A7
:103AE0002846FDF7E9F808F1004807463146404608
:103AF000FDF7E2F801463846FCF7D6FF31460746A7
:103B00002846FDF7D9F8214606464046FDF7D4F889
:103B100001463046FCF7C6FF394607F05BFF044616
:103B2000FCF77AFC9DF878B0DDF8689006460F4601
:103B30009DF874A0BBF1000F00F05E81A8A3D3E94B
:103B40000023FCF747FF002840F07481DFF8A4B29F
:103B50004946DBF84C604846FCF7A6FF3146FCF7C7
:103B6000A1FF3146FDF7A8F807F036FF4FF07C5172
:103B700006464846FDF7A0F82146FDF79DF8314678
:103B800020F00040FDF74CF907F082FEFDF796FAB1
:103B900083B20193002B00F0588118460B9B1E7ACC
:103BA000FDF736F83107074600F1398139464FF005
:103BB0007E50FDF735F9064601462046FDF77CF8B4
:103BC0000F9B069F814657F82A100E9053F82A0043
:103BD000FCF768FF3146FDF76FF849460790484605
:103BE000FDF76AF8044601464FF08040FCF75AFFA3
:103BF000214606467C48FCF755FF7C49044648466A
:103C0000FDF75AF801462046FDF756F84FF07C5173
:103C100008903046FDF750F8019B07EB8A07012B0F
:103C2000099000F0128101264FF00009704CB9F1A3
:103C30000B0F00F29F8029460898FDF73DF841469A
:103C400082460998FDF738F801465046FCF72CFFEC
:103C5000294682460998FDF72FF8414605460898FF
:103C6000FDF72AF801462846FCF71CFFD04605461A
:103C700009F101095FFA89F904992846FCF714FF54
:103C8000029B059918604046FCF70EFF039B0799BD
:103C900018603868FCF708FF38609BF858309A06BF
:103CA00005D52378202B0BD00698FFF77FFD2378CE
:103CB000022B05D120E000F0EBFC48B101F06EFBD7
:103CC00002F074F86378002BF5D011B0BDE8F08FE6
:103CD000DDF82CA00698514600F09AFD60B99BF8DB
:103CE00058309B0708D59AF80830D80604D50B9BA6
:103CF0001020596804F0CCFA6378002BE5D1013626
:103D0000019AB3B2934292D39BF85820237891063C
:103D100005D5202B0FD00F98FFF748FD2378022BF5
:103D2000D3D002F043F86378002BCED100F0B0FC82
:103D300050B101F033FB02F039F86378002BC4D1A5
:103D400000F0A6FC0028F4D10B9C0F98214600F04F
:103D50005FFD0028B9D19BF858309A07B5D5237A72
:103D6000DB06B2D510200B9B596811B0BDE8F04FAF
:103D700004F08EBA3046FCF74BFF0E99FCF79CFF1F
:103D8000054607F051FD8146284607F0EDFD0C9BE6
:103D900082461B68494603F1004318460A930D9B6F
:103DA000D3F80080FCF788FF514605464046FCF7F3
:103DB00083FF01462846FCF777FE0A9B51460546DD
:103DC0001846FCF779FF494682464046FCF774FFE7
:103DD00001465046FCF766FE4FF0000980464BE76F
:103DE0008DEDB5A0F7C6A0BE0000C040ABAA2A3E2C
:103DF000081400204417002019A3D3E90023FCF77E
:103E0000DFFD00283FF4A2AE17A3D3E9002330461C
:103E10003946FCF7A3F9FCF7F1FD044696E60B9A48
:103E200001461068FCF748FF0B9B26F00806186057
:103E30001E72BBE60CA3D3E9002330463946FCF7DB
:103E40008BF9FCF7DBFD044680E69BF85820084C14
:103E5000910623787FF563AF5BE700BFAFF3008087
:103E60008DEDB5A0F7C6A03E182D4454FB21194096
:103E700008140020074B1B78022B09D010B504460C
:103E800002F082F92046BDE81040002100F07CB924
:103E9000704700BF0814002010B50446FFF7F4F97E
:103EA00044B12046FFF77AFA01F080FF104B5B78AF
:103EB0007BB110BD0420FFF771FA0320FFF76EFA03
:103EC0000820FFF76BFA01F071FF094B5B78002BBC
:103ED000EFD1FDF775FF00F0EFFE4FF47040FDF7F6
:103EE0008FF94FF48072034BC3F884215A6010BDE0
:103EF0000814002000E100E02DE9F041424C237855
:103F0000022B32D015460F46064602F03DF994F8D2
:103F10000180B8F1000F25D1C5F3C00084F80580F9
:103F200001F0F4F901F006FA68BBDFF8EC802378C1
:103F300098F85820900605D5202B1ED03046FFF764
:103F400035FC2378022B18D10123304E0220337028
:103F500005F006FF01E02378F3B101F027FF637855
:103F6000002BF8D00220BDE8F0810020BDE8F081F0
:103F700000F08EFB48B301F011FA01F017FF6378EF
:103F8000002BF5D0E0E7042005F0FEFE01F00EFF67
:103F9000404601F0BBF9E5E73378012B27D0012338
:103FA000637100231846337001F0B0F901F0FEFE92
:103FB00004F042FC00F0FAFA00F07EFE02F024FF6A
:103FC0006079003018BF0120CDE73046394600F057
:103FD0001FFC0028B8D198F858309907B4D53B7A1F
:103FE000DA06B1D57968102004F052F9ACE7EB0697
:103FF00005D5074B074D0FCB85E80F00D1E705200E
:1040000005F0C2FECDE700BF081400201E140020FA
:1040100030140020201400204417002008B5154B50
:104020001B78DB0600D508BD102005F099FE04F0D2
:1040300043F8FDF7B5FD104A137813F02C0F08D0A4
:10404000042B0BD10D4B1B787BB1BDE8084004F06D
:1040500019BA127912F0060FF2D1E4E7032005F045
:1040600093FEBDE8084004F00DBA062005F08CFE72
:10407000EBE700BF1D1400200814002040140020AE
:104080002DE9F04F0C7883B0035D04442D2B69D0EB
:104090002B2B1DD04FF00008651C002634463746F8
:1040A000B4460CE00134E4B2082C16D80EB1013F3E
:1040B0007FB20CEB8C0C03EB4C0C15F8013B303B46
:1040C000DBB2092BEED9FE2B0CD15EB90126F4E749
:1040D0004FF000086378A51CDFE7002EEDD1013713
:1040E0007FB2EAE7002C39D08246604601919146C2
:1040F000FCF78AFD00218346FCF772FF08BB791CA0
:1041000012DA3E461D4C58462146FCF7D5FDB31C3D
:104110005EB2721C8346F6DBFFB2C7F1FE0303F00A
:10412000FE031F4402377FB27B1C20D04FB1144CDA
:1041300058462146FCF7C0FD013F7FB28346002F61
:10414000F6D1B8F1000F01D00BF1004B0124A5EB23
:104150000A05019B013DC9F800B01D70204603B05F
:10416000BDE8F08FA51C63784FF0010895E758462D
:104170000449FCF7A1FD8346E3E700BF0AD7233CCF
:1041800000002041CDCCCC3D70B50E461849FCF75F
:1041900093FD07F009FBFCF791FF80B2B0B1154D1C
:1041A0006B789BB9441EA4B28EB14FF6FF7608E03F
:1041B000013C3220A4B2FFF7F9FBB44206D06B7881
:1041C00023B901F0F5F8AB789B07F1D570BD4FF638
:1041D000FF7602E06B78002BF8D1013C01F0E6FDA0
:1041E000A4B23220FFF7E2FBB442F3D170BD00BFAE
:1041F0000000A0410814002060B138B54FF6FF75EB
:10420000441EA4B2013C0120A4B2FFF7CFFBAC4294
:10421000F8D138BD704700BF38B50D460146FCF7F0
:104220004BFD294604462846FCF746FD014620463C
:10423000FCF73AFCBDE8384007F0CEBBF8B506689D
:10424000044600213046FCF7CBFE002850D1314611
:104250003046FCF731FD0546676800213846FCF71B
:10426000BFFE40B939463846FCF726FD01462846D0
:10427000FCF71AFC0546A76800213846FCF7B0FE9B
:1042800040B939463846FCF717FD01462846FCF789
:104290000BFC0546E76800213846FCF7A1FE40B953
:1042A00039463846FCF708FD01462846FCF7FCFB7A
:1042B0000546284607F090FB074601464FF07E5022
:1042C000FCF7AEFD31460546FCF7F6FC29462060BA
:1042D0006068FCF7F1FC29466060A068FCF7ECFC24
:1042E0002946A060E068FCF7E7FCE0603846F8BDCE
:1042F0000025B1E7F8B50C680D46064600212046BA
:10430000FCF76EFE002840D121463068FCF788FD9E
:1043100020F0004420462149FCF776FE002834D0E6
:104320006F6800213846FCF75BFE50B9394670686B
:10433000FCF776FD20F0004739462046FCF764FE86
:1043400050B3AF6800213846FCF74AFE50B93946F1
:10435000B068FCF765FD20F0004739462046FCF7C1
:1043600053FEB8B1ED6800212846FCF739FE50B97C
:104370002946F068FCF754FD20F000452946204608
:10438000FCF742FE18B12046F8BD044CC8E72C46A5
:104390002046F8BD3C46E5E73C46D2E7FFFF7F7F7D
:1043A0002DE9F04F7C4B7D4A1B7883B0019392F846
:1043B0000080002B00F0B5805C1EE4B2444500F0A4
:1043C000AD80774DC4EBC40705EBC707796A386A3F
:1043D000FCF772FC0146FCF767FBD7F81CA081468E
:1043E000514607F11806FCF70FFE002800F0C680C2
:1043F000C6F800904FF0230A002C40F0C880DFF888
:10440000A891D04599F800202DD1A9E00AF1FF33F9
:104410005FFA83FA524532D0C6EBC60605EBC60BEF
:10442000DBF81C60DBF818003146FCF7D9FDA8B9B1
:10443000DBF82410DBF82000FCF73EFC0146FCF71B
:1044400033FBB969FCF730FB074601463046FCF701
:10445000EFFD002800F08F80CBF81870C24514D013
:10446000274699F80020CAEBCA0405EBC404564657
:10447000BAF1000FCAD14FF0230A5245CCD104F053
:104480002DFB464B93F80080C6E7434B1B78019306
:104490000AF10104E4B2242CCAEBCA0208BF0024CA
:1044A00005EBC2062EE0D6F81890D7F818804846DB
:1044B0004146FCF79FFD98B1716A306AFCF7FCFB3E
:1044C0000146FCF7F1FA4946FCF7EEFA814601464F
:1044D0004046FCF7ADFD18B1C846A246C7F8189093
:1044E000ABEB040B05EBCB0BDBF81C004146FCF7F8
:1044F00077FD621C002818BFA246D4B2242C08BF46
:1045000000243E46019B4FEAC40BABEB04079C42E0
:1045100005EBC707C7D1214B83F800A003B0BDE866
:10452000F08FB8F1230FF9D01D4DD5F8C817D5F885
:10453000CC07FCF7C1FB0146FCF7B6FAD5F8C47707
:1045400004463946FCF760FDD0B14FF0220A154F02
:10455000C5F8C047DFF85090D04599F8002082D1C7
:10456000924595D104F0BAFA0B4B1B7801930B4B93
:1045700093F800A08CE7CBF818606FE7D14637E7D7
:104580003C464FF0220AC5F8C047064FE2E7019BC0
:10459000023B5FFA83FA32E7340D0020350D00202C
:1045A00054050020FC0C0020360D002038B52422D4
:1045B0000021074807F035F8002301210548064A85
:1045C000064D074C037011702B70237038BD00BF6F
:1045D000380D0020350D0020370D0020360D00204D
:1045E000340D00200A490B4B0A781B7893420DD0FA
:1045F000531CDBB2242B08BF002310B406480B70F9
:104600000478944208BF037010BC7047704700BF25
:10461000360D0020340D0020350D0020034B0448DA
:104620001B78C3EBC30300EBC3007047340D0020BD
:1046300054050020064B074A1B7812789A421DBF8A
:104640000548C3EBC30300EBC3000020704700BF65
:10465000360D0020340D002054050020094B0A4A75
:104660001B7812780133DBB2242B08BF00239A4257
:1046700006D0064AC3EBC30302EBC3039869704735
:1046800000207047360D0020340D00205405002016
:10469000044A054B10781B78C01AB0FA80F0400924
:1046A000704700BF360D0020370D002038B5837DE0
:1046B000056BDA0714D5164B587AFCF7A9FA154999
:1046C000FCF7FAFA2946FCF7F7FA04464FF07E5158
:1046D0002046FCF7A3FC08B94FF07E54204638BDB5
:1046E0005B0704460BD40A4B187AFCF791FA094988
:1046F000FCF7E2FA01462846FCF7DEFA0546E46AD2
:1047000029462046FCF780FC0028DFD12C46DDE757
:10471000081400200AD7233C2DE9F04F354D364AC6
:10472000364B83B0287A147893F800B0FCF770FA0F
:104730003349FCF7C1FA0190687AFCF769FA30490D
:10474000FCF7BAFA2F4F0090DFF8C0A04FF07E5967
:1047500023E041460098FCF7AFFA05464946284653
:10476000FCF75CFC00B94D4629463846D6F828804F
:10477000FCF740FC002831D039463846FCF79CFA5B
:10478000074639464046FCF735FC20BBF76101344B
:10479000E4B2242C08BF00242F46A34524D0E50012
:1047A0002E1B0AEBC606B37DD6F83080DA07D0D4CC
:1047B0005B0704D440460199FCF77EFA80462D1B26
:1047C0000AEBC505ED6A41462846FCF71DFC0028AA
:1047D000C4D14546C2E7C6F81C80D8E7294628461A
:1047E000FCF76AFA0746CCE7074B1F6203B0BDE847
:1047F000F08F00BF08140020360D0020340D00207B
:104800000AD7233CFFFF7F7F380D0020540500208E
:104810002DE9F04F8B468246694B6A4D1E7893B066
:10482000F700A7EB060805EBC80838220021404630
:1048300006F0F7FE9BF80830DBF80420980788F8AC
:104840001630DFF890914CBF5F4B604BC8F83420B6
:1048500006AC0FCB84E80F00D9F80020DAF800107E
:1048600010460192FCF728FA07F052F88446B91B6B
:104870000698C9006B18ACEB00001A6980EAE07476
:10488000A4EBE07494426C5038BF14461C61009352
:10489000CDF808C0FCF7BCF9019A1146FCF7C0FA44
:1048A00000210A90FCF7A6FB009B20B1484A998A98
:1048B00012880A439A82D9F80420DAF804101046C4
:1048C0000192FCF7F9F907F023F801460798BB1BA2
:1048D000081A80EAE07CACEBE07C644538BF6446B3
:1048E00005EBC303C3F804C01C6100930391FCF7FC
:1048F0008FF9019A1146FCF793FA00210B90FCF70F
:1049000079FB009B20B1324A998A52880A439A82E5
:10491000D9F80820DAF8081010460192FCF7CCF913
:1049200006F0F6FF01460898BB1B081A80EAE07CF7
:10493000ACEBE07C644538BF644605EBC303C3F8C9
:1049400008C01C6100930491FCF762F9019A1146BA
:10495000FCF766FA00210C90FCF74CFB009B20B1A1
:104960001B499A8A89880A439A82D9F80C30DAF866
:104970000C1018460093FCF79FF906F0C9FF024699
:104980000998A7EB060A101A80EAE071A1EBE07122
:104990008C4238BF0C4605EBCA0ACAE903140592DB
:1049A000FCF736F9009B1946FCF73AFA00210D9006
:1049B000FCF720FB80B9C4B9204613B0BDE8F08FE6
:1049C000340D00205405002030140020380D002044
:1049D0001CCB000844170020AA4BBAF81420DB882F
:1049E0001343AAF81430002CE6D00AAC2046FFF797
:1049F00025FCA7EB060A05EBCA0ACAF824002146E3
:104A0000A148FFF777FC2146CAF820009F48FFF72E
:104A100071FC9AF81630CAF82C00D90700F1C28050
:104A2000DBF800101A07CAF8301007D5DAF82400AE
:104A30000093FCF741F9009BCAF83000944A95496D
:104A400012780978914200F0B0809B0700F1AD80A8
:104A5000914BDDF828A0D3F810B051465846FCF72A
:104A60002BF9594600F1004350460093FCF71AF821
:104A7000894BDDF82CA0D3F814B00E90594650465F
:104A8000FCF71AF9009B01461846FCF70BF859464B
:104A900001905046FCF706F87F4BDDF830B09B697B
:104AA00059460F9018460093FCF706F9019A014603
:104AB0001046FBF7F7FF009B824619465846FBF766
:104AC000F1FF754BDDF834B0DB691090594618469C
:104AD0000093FCF7F1F801465046FBF7E3FF009B1B
:104AE000824619465846FBF7DDFF6C491190504647
:104AF000FCF79EFA002800F085800022BB1B05EB26
:104B0000C3039A62BB1B05EBC3039A7D900753D482
:104B1000D107D3F8309053D5614B587AFCF778F829
:104B20004946FCF7C9F85F49FCF7C6F805464FF05F
:104B30007E512846FCF772FA08B94FF07E55564E62
:104B40002946D6F82090D8F828704846FCF752FA43
:104B5000002851D049464846FCF7AEF88146394610
:104B60004846FCF765FA002843D1C8F81C904E4A25
:104B70004E4F117847484B1CDBB2242B08BF002353
:104B8000356202AD0170137094E80F0087E80F00E2
:104B900095E80F0086E80F00FFF702FC012013B034
:104BA000BDE8F08FCAF8300048E70022BB1B05EBD8
:104BB000C3039A619A62A5E7012013B0BDE8F08FA4
:104BC00053070AD4364B187AFCF722F84946FCF70B
:104BD00073F83449FCF770F88146BE1B05EBC60537
:104BE000ED6A49462846FCF70FFA00289FD14D464A
:104BF0009DE7C8F81C70BAE729462846FCF75CF820
:104C00008146ACE72A495046FCF7F4F928B1BB1BB2
:104C1000284A05EBC3039A6274E70EA8FFF70EFB60
:104C20000EA91948FFF766FB514600904FF07E50E1
:104C3000FBF738FF4FF07C51FCF73EF806F0CCFE56
:104C40008346009B59461846FCF736F8D9F84810B9
:104C5000FCF732F8594681464FF07E50FBF722FFB1
:104C600001464846FCF7DCF8A7EB060A002105EBF5
:104C7000CA0A8146FCF7D2F908B94FF00009CAF810
:104C800028903FE71CCB0008641700205417002031
:104C9000360D0020340D0020380D0020EFFF7F3F3F
:104CA000081400200AD7233C370D0020480D0020AF
:104CB000EFFF7FBFFFFF7F7F064A074B10B4D2E9AB
:104CC0000040D2E90212C3E90040C3E9021210BC5D
:104CD000704700BF30140020380D0020064A074BF3
:104CE00012781B789A422CBF03F1230003F1FF30A6
:104CF000801AC0B2704700BF340D0020360D00206E
:104D000008B503F0EBFE044A044B12781A70BDE8B4
:104D10000840FFF745BB00BF360D0020350D0020D1
:104D200010B50446007828B102F0AAFC14F8010F6F
:104D30000028F9D110BD00BF632870B5054620D901
:104D40001C48A0FB05304009303002F099FC1A489D
:104D5000A0FB0534E408E3B2A0FB0320C00800EB8D
:104D60008000A3EB40003030C0B202F089FC04EBBD
:104D70008400A5EB40003030C0B2BDE8704002F0C6
:104D80007FBC092805D8BDE870403030C0B202F0C1
:104D900077BC0A26B0FBF6F404F13000C0B202F092
:104DA0006FFC06FB1450BDE870403030C0B202F01A
:104DB00067BC00BF1F85EB51CDCCCCCCF0B50D4608
:104DC00085B000210646FCF715F9002840F0C280A6
:104DD000012D40F2C7802C466D4F30463946FBF717
:104DE0006BFF023CE4B2012C0646F6D805F0010345
:104DF00023B130466749FBF75FFF06464FF07C5111
:104E00003046FBF751FEFCF733F9002800F0AC8088
:104E10000022614EA6FB0013DB0803EB8301A0EB2D
:104E20004100541C04A930300A44E4B202F8100CCA
:104E300022461846002BEDD1A54268D93021631CCB
:104E4000DBB204AA22449D4202F8101C7ED9A21CA7
:104E500004A8D2B20344954203F8101C72D9E31C93
:104E6000DBB202449D4202F8101C6FD9221DD2B25F
:104E70000344954203F8101C64D9631DDBB202445D
:104E8000AB4202F8101C61D2A21DD2B2034495427B
:104E900003F8101C56D9E31DDBB202449D4202F810
:104EA000101C53D904F10802D2B20344954203F80E
:104EB000101C47D904F10903DBB202449D4202F8F9
:104EC000101C43D904F10A02D2B20344954203F8FC
:104ED000101C37D904F10B03DBB202449D4202F8E7
:104EE000101C33D904F10C02D2B20344954203F8EA
:104EF000101C27D904F10D03DBB202449D4202F8D5
:104F0000101C23D90E340344E4B203F8101CA5424C
:104F100010D06CB16B1E0DEB0406DFB2A54226D09B
:104F200016F8010D013C02F0ABFB14F0FF04F5D1C3
:104F300005B0F0BD302204AB6C1C2B4403F8102CE0
:104F4000E4B2E6E71446A542E3D1F3E71C46A542E6
:104F5000DFD1EFE72D2002F093FB012D06F1004693
:104F60003FF639AF2B4643E765B1044666E72E208E
:104F700002F086FB16F8010D02F082FB3C46002F82
:104F8000CCD1D5E7302301248DF80030C2E700BF33
:104F90000000C84200002041CDCCCCCC30B5724BD3
:104FA00085B093F85830DB0757D400210446FCF74E
:104FB00021F8002840F0B1806C492046FBF77CFEC8
:104FC0004FF07C51FBF770FDFCF752F8002800F021
:104FD000AA800024664D00E01C46A5FB0032D208E2
:104FE00002EB8203A0EB430004A93030631C214490
:104FF00001F8100CDBB21046002AEDD1022B00F2B2
:10500000AA803021A21C04A8D2B20344032A03F8C8
:10501000101C07D00244FF2C02F8101C02D13023D0
:105020008DF80230302504238DF803500AE02E203D
:1050300002F026FB284602F023FB04AA2346144470
:1050400014F8115C5C1E032BE4B2F0D0284602F089
:1050500017FB002CF1D105B030BD4649FBF72CFE03
:1050600000210446FBF7C6FF002861D142492046D3
:10507000FBF722FE4FF07C51FBF716FDFBF7F8FF24
:1050800000285BD000243A4D00E01C46A5FB00320E
:10509000D20802EB8203A0EB430004A93030631C6A
:1050A000214401F8100CDBB21046002AEDD1032B8D
:1050B0004AD83021A21C04A8D2B20344042A03F81F
:1050C000101C0FD00334E4B20244042C02F8101C6C
:1050D00008D0302304AA2244022C02F8103C01D14B
:1050E0008DF80330302505238DF804500AE02E207A
:1050F00002F0C6FA284602F0C3FA04AA2346144472
:1051000014F8115C5C1E042BE4B2F0D0284602F0C7
:10511000B7FA002CF1D105B030BD2D2002F0B0FA65
:1051200004F1004448E743F23003ADF8003076E77D
:105130002D2002F0A5FA04F1004497E743F2300372
:105140000224ADF80030C4E7042BCBD004AA1A44E3
:1051500012F8115CD6E7032B3FF464AF04AA1A449B
:1051600012F8115C6EE700BF4417002000007A447B
:10517000CDCCCCCC8B42213D00401C4670B54C4B75
:1051800084B093F85830DB0733D400210446FBF792
:1051900031FF002874D14FF07C512046FBF784FC8E
:1051A000FBF766FF002871D00024424D00E01C464A
:1051B000A5FB0032D20802EB8203A0EB430004A956
:1051C0003030631C214401F8100CDBB21046002A79
:1051D000EDD1002B5AD00DF1FF32D5182D1B0DEB60
:1051E000030414F8010D02F04BFAA542F9D104B002
:1051F00070BD3149FBF760FD00210446FBF7FAFE64
:10520000002849D12D492046FBF756FD4FF07C512F
:10521000FBF74AFCFBF72CFFA0B10021254CA4FBB7
:105220000032D20802EB8203A0EB430004AD4B1C1A
:1052300030302944DBB201F8100C19461046002A20
:10524000EDD17BBB30238DF800303022022316468F
:105250008DF801205C1EE5B26D4400E05C1E304616
:1052600002F00EFAE3B2012B15F8016DF6D12E20F3
:1052700002F006FA304604B0BDE8704002F000BA11
:105280002D2002F0FDF904F1004484E7302004B041
:10529000BDE8704002F0F4B92D2002F0F1F904F1FC
:1052A0000044AFE7012BD0D0294411F8116CD1E7AD
:1052B00044170020CDCCCCCC8B42213D00002041B6
:1052C00010B5012182B04FF400740820FCF7B4FA45
:1052D0000322482302A921F8044D09488DF806202D
:1052E0008DF80730FCF76AF80021064A064B92F960
:1052F000582019808A42A8BF1C8002B010BD00BF90
:10530000000C0140441700204214002000230749EC
:10531000074A91F9581013809942AABF4FF40071BF
:105320004FF40073118000B11380704744170020C0
:105330004214002008B50548FCF7C6F9044B00F4F8
:1053400000701B88181A18BF012008BD000C01400E
:105350004214002038B50B48FCF7B6F90A4B00F4AC
:1053600000701B8883420CD00021084A084D094B6D
:10537000094C11700FCB84E80F002B7843F04003E9
:105380002B7038BD000C0140421400201E14002078
:105390001D140020301400202014002008B5FFF751
:1053A00049F920B1BDE80840022004F0D9BC08BD8D
:1053B000F8B5AE4B1B78002B40F0B280AC4CAD4D35
:1053C0002B7803F0FF05002B5BD0E80600F1A580E9
:1053D000E90700F1238115F0E80F33D023786EB28E
:1053E0009A0729D113F0280F40F04C8105F04001B5
:1053F00005F00802002B40F04D810120A07000292B
:1054000000F06F814121A1701AB113F0E00F00F09C
:105410006B81A80610D5062001F0C4F9A3781906FF
:1054200007D42278402A00F0A081802A01D04022AF
:10543000227043F02003A370002EC0F23F81E820C9
:1054400004F098FCAB0719D515F0680F13D1237839
:10545000402B00F02A81002B40F04981002323716A
:10546000FFF7E8F820B1A37813F0400300F06E8155
:105470000023A3702370022004F07CFC690700F174
:10548000B5807D4B1B7803F0FF05002B73D17B4B60
:105490001B7803F0FF0523B9237813F0FC0F38D1F4
:1054A000F8BD04F09DFCA27A15F0010F0CBF134665
:1054B0006423AE0744BF0A33DBB2680744BF0A3B2C
:1054C000DBB2290744BF0133DBB2EF0644BF03F16F
:1054D000FF33DBB2C82B28BFC8230A2B38BF0A23EF
:1054E0009A4206D000212279A37242F00803237168
:1054F0002173AE06237805F0C00220D5102B1ED1F3
:10550000E17A002940F0E4800221E172002A40F0B3
:105510009980BDE8F84003F0F7BA01236370F8BD45
:10552000012603F0FF05524C2846013D267001F08C
:1055300023F9B54278D94F4D04F02EFC40E7002AFC
:10554000ABD0002B7ED14E4F2A063E7A05D53306CE
:105550004CBF06F07F0646F08006680605D571064A
:105560004CBF06F0BF0646F040063046FCF726FB6F
:1055700023783E7291E704F02BFC217A15F0010F9D
:105580000CBF0B466423AF0744BF0A33DBB26E0780
:1055900044BF0A3BDBB2280744BF0133DBB2EF064E
:1055A00044BF03F1FF33DBB2C82B28BFC8230A2B4B
:1055B00038BF0A23607A15F0200F14BF6422024618
:1055C00015F0400F18BF322215F0800F18BF1922B6
:1055D000994202D182423FF45AAF00212372627293
:1055E0002173FFF799F8FFF78BFB50E72278A37838
:1055F00012F0D00F59B201D0E27842B3002928DB73
:1056000013F020021BD0402203F07F0343F001037C
:10561000A3702270042004F0ADFB32E701F01CFE01
:10562000012004F0A7FBD6E6304601F0BBF81020BD
:1056300004F0A0FB0F4D2B78DE06FCD57CE7A270B2
:105640002270E7E713F0180F3FF427AF7BE700293C
:105650005FDA00232371FEF7A9FF03F0EDF8FCF7F2
:10566000AFFBFFF729FBA378CAE700BF4014002077
:10567000081400201D140020041400201C14002015
:105680006C130020A27812F0C00F4FD005F040013B
:1056900005F0080200293FF4B7AE9F063FF5B4AE0F
:1056A000A17841F04001A170AEE6A37813F020028A
:1056B0007FF4E1AEDF0651D52270CFE62378012BCF
:1056C00003D1A37843F00503A37080232370B6E6CB
:1056D000C80702D541F00401E172002A7FF433AF1C
:1056E00017E7002A3FF495AE1023237091E6DA06FF
:1056F0007FF5C1AEA278D0077FF5BDAE102B7FF449
:10570000ADAEE37A002B3FF4A9AE43F00803E37299
:10571000B1E6FFF7F5FA23799A0703D5A27842F0AC
:105720000102A27023F00603237173E703F0D6F998
:10573000022223782271202B7FF458AE002EFFF630
:1057400068AEA37863F07F03A37062E60822A370BB
:10575000227003F0D9F902F055FE8CE65E077FF562
:105760008AAE43F00803A37085E61A077FF55FAEA3
:1057700023F01C0343F0020359E600BF2DE9F04F6C
:1057800083B0FEF757FF002800F07882867DD0F8BE
:105790003480BE4D95F85830980700F16B82002791
:1057A000BB4CA378002B00F0D7806278002A40F031
:1057B000D380D90739D5217811F0C00000F0FC80E2
:1057C00013F0040B00F0C181802900F0C982402948
:1057D00000F04682180728D5DFF8C4A203F00201C2
:1057E0009AF80900002800F0C780F1B995F8581020
:1057F000890740F1B48021799AF8080041F0080245
:10580000227160B106F04000FCF7D8F901214FF099
:105810007E50FEF7B9FCA37803F0020129B943F0EA
:1058200010030220A37004F09BFA9A4B1B7803F03C
:10583000FF0B002B40F0AF80DFF868B29BF8003020
:1058400003F0FF0B002B6FD01BF0100F40F06C81AA
:105850001BF0010F40F089811BF0E80F28D023785E
:105860004FFA8BF299071DD113F0280F40F0B58144
:105870000BF040000BF00801002B40F0B7814FF017
:10588000010C84F802C0002800F01F824120A070A3
:1058900021B113F0E00F01D1102323701BF0200F72
:1058A00040F00182002AC0F2D181E82004F062FABF
:1058B0001BF0020F1FD01BF0680F19D12378402B6B
:1058C00000F0E381002B40F02C8200232371FEF7CF
:1058D000B1FE002800F0A981A37813F0400340F046
:1058E000A4810822A370227003F00EF902F08AFD51
:1058F000022004F03FFA1BF0040F15D02178A378A2
:1059000011F0D00F5AB203D0E178002900F079816C
:10591000002AC0F2788113F0200240F04B81A2707F
:105920002270042004F026FA5B4B1B7803F0FF0B77
:10593000002B40F0B980594B1B7803F0FF0B002B74
:1059400049D1237813F0FC0F3FF42BAF03F0DCF8C0
:10595000A378002B7FF429AF03B0BDE8F08F414658
:1059600006F0300002F008FC01214FF08140FEF704
:105970000BFCA37803F002019AF80820002A3FF4F8
:105980004DAF00293FF43EAF424B1B7803F0FF0BB5
:10599000002B3FF451AF4FF0010958460BF1FF3B8C
:1059A00084F8009000F0E8FECB4540F2F680DFF886
:1059B000F4B004F0F1F941E7E37A002B00F0B7808E
:1059C0009A0740F1D880364B5B7A002B40F0278154
:1059D0000023E37229E704F003FA1BF0010F18BF5C
:1059E0006423A27A08BF13461BF0020F1CBF0A33C0
:1059F000DBB21BF0040F1CBF0A3BDBB21BF0080F2D
:105A00001CBF0133DBB21BF0100F1CBF03F1FF33CF
:105A1000DBB2C82B28BFC8230A2B38BF0A239A42FF
:105A200006D000212279A37242F00803237121736A
:105A30001BF0200F23780BF0C00202D0102B00F0D7
:105A4000C180002A3FF47EAF002B40F0FA80DFF8DF
:105A500050A01BF0800F9AF8089006D019F0800F24
:105A600014BF09F07F0949F080091BF0400F06D0F0
:105A700019F0400F14BF09F0BF0949F0400948462A
:105A8000FCF79CF823788AF808905BE7441700201D
:105A90000814002040140020041400201C140020CE
:105AA0006C1300201D14002004F092F91BF0010F6C
:105AB00018BF6423227A607A08BF13461BF0020FD6
:105AC0001CBF0A33DBB21BF0040F1CBF0A3BDBB266
:105AD0001BF0080F1CBF0133DBB21BF0100F1CBF03
