:020000040800F2
:1000000000500020D183000899B300089DB3000878
:10001000A1B30008A5B30008A9B3000800000000C0
:10002000000000000000000000000000ADB3000868
:10003000B1B3000800000000B5B300082184000837
:1000400021840008218400082184000821840008FC
:1000500021840008218400082184000821840008EC
:1000600021840008218400082184000821840008DC
:1000700021840008218400082184000821840008CC
:1000800021840008218400082184000821840008BC
:10009000B9B300082184000821840008DD96000817
:1000A000218400082184000821840008218400089C
:1000B00025850008C58700082184000821840008E0
:1000C000218400082184000821840008218400087C
:1000D0002184000821840008218400080D7900088B
:1000E000513300082184000821840008000000002A
:1000F0000000000000000000000000000000000000
:0C01000000000000000000005FF808F1A3
:1001100010B5054C237833B9044B13B10448AFF341
:1001200000800123237010BDF801002000000000B2
:100130002CC6000808B5034B1BB103490348AFF3B5
:10014000008008BD00000000FC0100202CC6000853
:1001500081F0004102E000BF83F0004330B54FEA78
:1001600041044FEA430594EA050F08BF90EA020FE5
:100170001FBF54EA000C55EA020C7FEA645C7FEA78
:10018000655C00F0E2804FEA5454D4EB5555B8BF9B
:100190006D420CDD2C4480EA020281EA030382EA0C
:1001A000000083EA010180EA020281EA0303362D9E
:1001B00088BF30BD11F0004F4FEA01314FF4801C71
:1001C0004CEA113102D0404261EB410113F0004F83
:1001D0004FEA03334CEA133302D0524263EB43033A
:1001E00094EA050F00F0A780A4F10104D5F1200ED8
:1001F0000DDB02FA0EFC22FA05F2801841F1000133
:1002000003FA0EF2801843FA05F359410EE0A5F106
:1002100020050EF1200E012A03FA0EFC28BF4CF037
:10022000020C43FA05F3C01851EBE37101F00045ED
:1002300007D54FF0000EDCF1000C7EEB00006EEBFA
:100240000101B1F5801F1BD3B1F5001F0CD3490884
:100250005FEA30004FEA3C0C04F101044FEA4452DB
:1002600012F5800F80F09A80BCF1004F08BF5FEA62
:10027000500C50F1000041EB045141EA050130BD42
:100280005FEA4C0C404141EB010111F4801FA4F1E5
:100290000104E9D191F0000F04BF01460020B1FA3A
:1002A00081F308BF2033A3F10B03B3F120020CDA72
:1002B0000C3208DD02F1140CC2F10C0201FA0CF050
:1002C00021FA02F10CE002F11402D8BFC2F1200CB5
:1002D00001FA02F120FA0CFCDCBF41EA0C0190406B
:1002E000E41AA2BF01EB0451294330BD6FEA0404B4
:1002F0001F3C1CDA0C340EDC04F11404C4F120029F
:1003000020FA04F001FA02F340EA030021FA04F3B0
:1003100045EA030130BDC4F10C04C4F1200220FA07
:1003200002F001FA04F340EA0300294630BD21FA45
:1003300004F0294630BD94F0000F83F4801306BF0B
:1003400081F480110134013D4EE77FEA645C18BFFF
:100350007FEA655C29D094EA050F08BF90EA020F96
:1003600005D054EA000C04BF1946104630BD91EA8E
:10037000030F1EBF0021002030BD5FEA545C05D191
:100380004000494128BF41F0004130BD14F58004D0
:100390003CBF01F5801130BD01F0004545F0FE4144
:1003A00041F470014FF0000030BD7FEA645C1ABF79
:1003B000194610467FEA655C1CBF0B46024650EAB0
:1003C000013406BF52EA033591EA030F41F40021DC
:1003D00030BD00BF90F0000F04BF0021704730B562
:1003E0004FF4806404F132044FF000054FF0000137
:1003F00050E700BF90F0000F04BF0021704730B5F8
:100400004FF4806404F1320410F0004548BF4042CC
:100410004FF000013EE700BF42004FEAE2014FEA21
:1004200031014FEA02701FBF12F07F4393F07F4FFC
:1004300081F06051704792F0000F14BF93F07F4F2E
:10044000704730B54FF4607401F0004521F0004171
:1004500020E700BF50EA010208BF704730B54FF0F7
:1004600000050AE050EA010208BF704730B511F0FC
:10047000004502D5404261EB41014FF4806404F134
:1004800032045FEA915C3FF4DCAE4FF003025FEAB6
:10049000DC0C18BF03325FEADC0C18BF033202EB3E
:1004A000DC02C2F1200300FA03FC20FA02F001FA98
:1004B00003FE40EA0E0021FA02F11444C1E600BF37
:1004C00070B54FF0FF0C4CF4E06C1CEA11541DBFEA
:1004D0001CEA135594EA0C0F95EA0C0F00F0DEF8B5
:1004E0002C4481EA030621EA4C5123EA4C5350EA9A
:1004F000013518BF52EA033541F4801143F48013EB
:1005000038D0A0FB02CE4FF00005E1FB02E506F07B
:100510000042E0FB03E54FF00006E1FB03569CF0D0
:10052000000F18BF4EF0010EA4F1FF04B6F5007FD6
:1005300064F5407404D25FEA4E0E6D4146EB060648
:1005400042EAC62141EA55514FEAC52040EA5E50D1
:100550004FEACE2EB4F1FD0C88BFBCF5E06F1ED87B
:10056000BEF1004F08BF5FEA500E50F1000041EBB2
:10057000045170BD06F0004646EA010140EA02005F
:1005800081EA0301B4EB5C04C2BFD4EB0C0541EA81
:10059000045170BD41F480114FF0000E013C00F396
:1005A000AB8014F1360FDEBF002001F0004170BDBA
:1005B000C4F10004203C35DA0C341BDC04F11404D3
:1005C000C4F1200500FA05F320FA04F001FA05F25F
:1005D00040EA020001F0004221F0004110EBD3702C
:1005E00021FA04F642EB06015EEA430E08BF20EA58
:1005F000D37070BDC4F10C04C4F1200500FA04F3FB
:1006000020FA05F001FA04F240EA020001F000418C
:1006100010EBD37041F100015EEA430E08BF20EAFF
:10062000D37070BDC4F1200500FA05F24EEA020E47
:1006300020FA04F301FA05F243EA020321FA04F076
:1006400001F0004121FA04F220EA020000EBD3702D
:100650005EEA430E08BF20EAD37070BD94F0000F2D
:100660000FD101F00046400041EB010111F4801F61
:1006700008BF013CF7D041EA060195F0000F18BF12
:10068000704703F00046520043EB030313F4801F4E
:1006900008BF013DF7D043EA0603704794EA0C0F08
:1006A0000CEA135518BF95EA0C0F0CD050EA41061E
:1006B00018BF52EA4306D1D181EA030101F000419B
:1006C0004FF0000070BD50EA410606BF10461946C3
:1006D00052EA430619D094EA0C0F02D150EA0136CF
:1006E00013D195EA0C0F05D152EA03361CBF104610
:1006F00019460AD181EA030101F0004141F0FE41AF
:1007000041F470014FF0000070BD41F0FE4141F432
:10071000780170BD70B54FF0FF0C4CF4E06C1CEA32
:1007200011541DBF1CEA135594EA0C0F95EA0C0FE7
:1007300000F0A7F8A4EB050481EA030E52EA0335A2
:100740004FEA013100F088804FEA03334FF08055C3
:1007500045EA131343EA12634FEA022245EA1115F0
:1007600045EA10654FEA00260EF000419D4208BFA1
:10077000964244F1FD0404F5407402D25B084FEA4E
:100780003202B61A65EB03055B084FEA32024FF4FA
:1007900080104FF4002CB6EB020E75EB030E22BF57
:1007A000B61A754640EA0C005B084FEA3202B6EB17
:1007B000020E75EB030E22BFB61A754640EA5C00C6
:1007C0005B084FEA3202B6EB020E75EB030E22BF56
:1007D000B61A754640EA9C005B084FEA3202B6EB57
:1007E000020E75EB030E22BFB61A754640EADC0016
:1007F00055EA060E18D04FEA051545EA16754FEA78
:1008000006164FEAC30343EA52734FEAC2025FEA95
:100810001C1CC0D111F4801F0BD141EA00014FF024
:1008200000004FF0004CB6E711F4801F04BF0143F5
:100830000020B4F1FD0C88BFBCF5E06F3FF6AFAE11
:10084000B5EB030C04BFB6EB020C5FEA500C50F1A1
:10085000000041EB045170BD0EF0004E4EEA113124
:1008600014EB5C04C2BFD4EB0C0541EA045170BD2B
:1008700041F480114FF0000E013C90E645EA060E6F
:100880008DE60CEA135594EA0C0F08BF95EA0C0F9D
:100890003FF43BAF94EA0C0F0AD150EA01347FF4E5
:1008A00034AF95EA0C0F7FF425AF104619462CE7BC
:1008B00095EA0C0F06D152EA03353FF4FDAE10461F
:1008C000194622E750EA410618BF52EA43067FF470
:1008D000C5AE50EA41047FF40DAF52EA43057FF400
:1008E000EBAE12E74FF0FF3C06E000BF4FF0010C0B
:1008F00002E000BF4FF0010C4DF804CD4FEA410C6F
:100900007FEA6C5C4FEA430C18BF7FEA6C5C1BD03B
:1009100001B050EA410C0CBF52EA430C91EA030FBC
:1009200002BF90EA020F0020704710F1000F91EA19
:10093000030F58BF994208BF90422CBFD8176FEAE7
:10094000E37040F0010070474FEA410C7FEA6C5CB5
:1009500002D150EA013C07D14FEA430C7FEA6C5CBC
:10096000D6D152EA033CD3D05DF8040B704700BFE8
:100970008446104662468C461946634600E000BF36
:1009800001B5FFF7B7FF002848BF10F1000F01BD08
:100990004DF808EDFFF7F4FF0CBF012000205DF8D3
:1009A00008FB00BF4DF808EDFFF7EAFF34BF012058
:1009B00000205DF808FB00BF4DF808EDFFF7E0FFF1
:1009C00094BF012000205DF808FB00BF4DF808ED42
:1009D000FFF7CEFF94BF012000205DF808FB00BFA9
:1009E0004DF808EDFFF7C4FF34BF012000205DF88B
:1009F00008FB00BF4FEA4102B2F1E04324BFB3F568
:100A0000001CDCF1FE5C0DD901F0004C4FEAC00285
:100A10004CEA5070B2F1004F40EB830008BF20F069
:100A20000100704711F0804F21D113F13872BCBF23
:100A300001F00040704741F480114FEA5252C2F178
:100A40001802C2F1200C10FA0CF320FA02F018BFC1
:100A500040F001004FEAC1234FEAD32303FA0CFC14
:100A600040EA0C0023FA02F34FEA4303CCE77FEAA3
:100A7000625307D150EA01331EBF4FF0FE4040F4ED
:100A80004000704701F0004040F0FE4040F400009C
:100A9000704700BF80F0004002E000BF81F00041DD
:100AA00042001FBF5FEA410392EA030F7FEA226C14
:100AB0007FEA236C6AD04FEA1262D2EB1363C1BFA4
:100AC000D218414048404140B8BF5B42192B88BF13
:100AD000704710F0004F40F4000020F07F4018BF36
:100AE000404211F0004F41F4000121F07F4118BF56
:100AF000494292EA030F3FD0A2F1010241FA03FCFE
:100B000010EB0C00C3F1200301FA03F100F00043E5
:100B100002D5494260EB4000B0F5000F13D3B0F1AD
:100B2000807F06D340084FEA310102F10102FE2A1C
:100B300051D2B1F1004F40EBC25008BF20F001008C
:100B400040EA03007047490040EB000010F4000F3A
:100B5000A2F10102EDD1B0FA80FCACF1080CB2EBCD
:100B60000C0200FA0CF0AABF00EBC250524218432C
:100B7000BCBFD0401843704792F0000F81F40001D1
:100B800006BF80F400000132013BB5E74FEA4103A4
:100B90007FEA226C18BF7FEA236C21D092EA030F10
:100BA00004D092F0000F08BF0846704790EA010F8A
:100BB0001CBF0020704712F07F4F04D1400028BFB7
:100BC00040F00040704712F100723CBF00F5000099
:100BD000704700F0004343F0FE4040F400007047CF
:100BE0007FEA226216BF08467FEA2363014642027B
:100BF00006BF5FEA412390EA010F40F4800070478E
:100C00004FF0000304E000BF10F0004348BF404233
:100C10005FEA000C08BF704743F0964301464FF06F
:100C200000001CE050EA010208BF70474FF00003CB
:100C30000AE000BF50EA010208BF704711F000430C
:100C400002D5404261EB41015FEA010C02BF8446DC
:100C50000146002043F0B64308BFA3F18053A3F53B
:100C60000003BCFA8CF2083AA3EBC25310DB01FA82
:100C700002FC634400FA02FCC2F12002BCF1004F06
:100C800020FA02F243EB020008BF20F00100704797
:100C900002F1200201FA02FCC2F1200250EA4C00EB
:100CA00021FA02F243EB020008BF20EADC70704731
:100CB0004FF0FF0C1CEAD0521EBF1CEAD15392EA3F
:100CC0000C0F93EA0C0F6FD01A4480EA010C40021B
:100CD00018BF5FEA41211ED04FF0006343EA501075
:100CE00043EA5111A0FB01310CF00040B1F5000FB7
:100CF0003EBF490041EAD3715B0040EA010062F166
:100D00007F02FD2A1DD8B3F1004F40EBC25008BF4F
:100D100020F00100704790F0000F0CF0004C08BF6D
:100D200049024CEA502040EA51207F3AC2BFD2F13A
:100D3000FF0340EAC250704740F400004FF0000348
:100D4000013A5DDC12F1190FDCBF00F00040704782
:100D5000C2F10002410021FA02F1C2F1200200FAC0
:100D600002FC5FEA310040F1000053EA4C0308BF87
:100D700020EADC70704792F0000F00F0004C02BFD8
:100D8000400010F4000F013AF9D040EA0C0093F053
:100D9000000F01F0004C02BF490011F4000F013BAD
:100DA000F9D041EA0C018FE70CEAD15392EA0C0F1B
:100DB00018BF93EA0C0F0AD030F0004C18BF31F086
:100DC000004CD8D180EA010000F00040704790F05C
:100DD000000F17BF90F0004F084691F0000F91F000
:100DE000004F14D092EA0C0F01D142020FD193EAC6
:100DF0000C0F03D14B0218BF084608D180EA01004E
:100E000000F0004040F0FE4040F40000704740F029
:100E1000FE4040F4400070474FF0FF0C1CEAD052F7
:100E20001EBF1CEAD15392EA0C0F93EA0C0F69D053
:100E3000A2EB030280EA010C49024FEA402037D0BE
:100E40004FF0805343EA111143EA10130CF00040B5
:100E50008B4238BF5B0042F17D024FF4000C8B42A5
:100E600024BF5B1A40EA0C00B3EB510F24BFA3EB85
:100E7000510340EA5C00B3EB910F24BFA3EB910355
:100E800040EA9C00B3EBD10F24BFA3EBD10340EAAF
:100E9000DC001B0118BF5FEA1C1CE0D1FD2A3FF6F5
:100EA00050AF8B4240EBC25008BF20F001007047AA
:100EB0000CF0004C4CEA50207F32C2BFD2F1FF034D
:100EC00040EAC250704740F400004FF00003013A7E
:100ED00037E792F0000F00F0004C02BF400010F422
:100EE000000F013AF9D040EA0C0093F0000F01F036
:100EF000004C02BF490011F4000F013BF9D041EA58
:100F00000C0195E70CEAD15392EA0C0F08D142028A
:100F10007FF47DAF93EA0C0F7FF470AF084676E75D
:100F200093EA0C0F04D14B023FF44CAF08466EE736
:100F300030F0004C18BF31F0004CCAD130F0004204
:100F40007FF45CAF31F000437FF43CAF5FE700BF5C
:100F50004FF0FF3C06E000BF4FF0010C02E000BF85
:100F60004FF0010C4DF804CD4FEA40024FEA410327
:100F70007FEA226C18BF7FEA236C11D001B052EADD
:100F8000530C18BF90EA010F58BFB2EB030088BFA3
:100F9000C81738BF6FEAE17018BF40F00100704712
:100FA0007FEA226C02D15FEA402C05D17FEA236CF4
:100FB000E4D15FEA412CE1D05DF8040B704700BF3B
:100FC000844608466146FFE70FB5FFF7C9FF0028D2
:100FD00048BF10F1000F0FBD4DF808EDFFF7F4FF0B
:100FE0000CBF012000205DF808FB00BF4DF808EDA4
:100FF000FFF7EAFF34BF012000205DF808FB00BFC7
:101000004DF808EDFFF7E0FF94BF012000205DF8E8
:1010100008FB00BF4DF808EDFFF7D2FF94BF012099
:1010200000205DF808FB00BF4DF808EDFFF7C8FF92
:1010300034BF012000205DF808FB00BF4FEA4002EA
:101040004FEA41037FEA226C02D15FEA402C08D1CB
:101050007FEA236C02D15FEA412C02D14FF00000FD
:1010600070474FF0010070474FEA4002B2F1FE4F67
:101070000FD34FF09E03B3EB12620DD94FEA00235A
:1010800043F0004310F0004F23FA02F018BF404233
:1010900070474FF00000704712F1610F01D142021A
:1010A00005D110F0004008BF6FF0004070474FF0CE
:1010B0000000704742000ED2B2F1FE4F0BD34FF04A
:1010C0009E03B3EB126209D44FEA002343F00043BE
:1010D00023FA02F070474FF00000704712F1610FE1
:1010E00001D1420202D14FF0FF3070474FF00000B3
:1010F000704700BF40F0BF60024B40F40030D86042
:10110000704700BF00ED00E0C3785BB901210378B0
:1011100014485A0903F01F03203201FA03F340F880
:1011200022307047104B0F21DA6870B4D24301248B
:1011300085784378C2F30222C2F1040621FA02F252
:101140002A40B34001781343064A1B0101F01F05F2
:101150005018DBB2AC4080F80033490942F8214016
:1011600070BC704700E100E000ED00E0837933B32C
:1011700030B404681B4BE1431D6802790D401D60CB
:101180005D6802F180422940596002F5823215689B
:1011900041792C43146002689C68D04304409C60F1
:1011A000DC68102900EA0400D86013D030BC01F1DB
:1011B000804303F5823319680A431A607047037944
:1011C000016803F1804303F582331A6822EA0102C1
:1011D0001A607047996830BC11439960D9680A4316
:1011E000DA60704700040140054B1A685B690340F0
:1011F00004D0024214BF01200020704718467047F7
:1012000000040140014B5861704700BF00040140D9
:10121000024B0349034A59605A607047002002405C
:1012200023016745AB89EFCD3849CB6813F0010F37
:10123000CB6803D15B0738D502207047DB072CD47D
:101240004FF43023314AD168490705D50220013BCC
:10125000002B08BF05207047D268D2061AD4012B94
:1012600021D02A4A136943F00203136150611369C4
:1012700043F040031361D36813F0010FD36819D111
:101280005B073BD5022041F6FD71204A13690B40F4
:10129000136170470320013BDAE71D4BCA68D20790
:1012A000D0D5013BFAD105207047CB68D906D8D5F7
:1012B00003207047D90709D4D3685B07E2D4D36809
:1012C00013F0100F14BF03200420DCE7104BD1688B
:1012D000C90708D4D168013B490708D50220002B73
:1012E00008BF0520CFE7013BF1D10520CBE7D2684D
:1012F00012F0100F14BF03200420F0E7D36813F09E
:10130000100F0CBF04200320BDE700BF00200240E7
:10131000FFFF0A0010B4394CE36813F0010FE368D3
:1013200004D15B0738D5022010BC7047DB0729D4F5
:101330004FF40053314AD468640705D50220013BBD
:10134000002B08BF0520EFE7D268D20617D4012B87
:101350001FD02A4A136943F0010313610180D36847
:1013600013F0010FD3681CD15B073FD5022041F673
:10137000FE71224A10BC13690B40136170470320B1
:10138000013BDDE741F6FF73E268D207D2D5013BAE
:10139000FAD1052010BC7047E368DC06D9D50320DC
:1013A000C2E7D90709D4D3685B07DFD4D36813F049
:1013B000100F14BF03200420D9E741F6FF73D16852
:1013C000CC0708D4D168013B490708D50220002B7F
:1013D00008BF0520CBE7013BF1D10520C7E7D26864
:1013E00012F0100F14BF03200420F0E7D36813F0AD
:1013F000100F0CBF04200320B9E700BF00200240FB
:1014000030B4CD78EB0648BF8B7805F00F0448BFA9
:101410001C430B8813F0FF0F32D0482D026800F0F8
:101420008180282D00F0B680D90744BF22F00F023A
:101430002243990744BF22F0F00242EA04125907FE
:1014400044BF22F4706242EA0422190744BF22F426
:10145000704242EA0432D90644BF22F4702242EAC2
:101460000442990644BF22F4700242EA045259062B
:1014700044BF22F0706242EA0462190671D402602D
:10148000FF2B30D9282D42682FD0482D6CD0D9059C
:1014900044BF22F00F0222439D0544BF22F0F00218
:1014A00042EA0412590544BF22F4706242EA04225F
:1014B0001D0544BF22F4704242EA0432D90444BFFD
:1014C00022F4702242EA04429D0444BF22F47002D6
:1014D00042EA0452590444BF22F0706242EA0462B4
:1014E0001D043BD4426030BC7047D90500F1D68062
:1014F0009D0500F1CB80590500F1C0801D0500F16C
:10150000B580D90400F1AA809D0400F19F805904A0
:1015100000F194801B04E5D54FF4004364F31F727F
:101520004361DFE7D90700F1E380990700F1D98033
:10153000590700F1CF80190700F1C580D90600F1E5
:10154000BB80990600F1B180590600F1D7801906D9
:1015500095D5802164F31F72016190E764F31F72D7
:10156000C0E764F31F728AE7D90548D49D053ED4CD
:10157000590534D41D052AD4D9044FD49D0445D42B
:10158000590453D41D04ADD54FF4004364F31F72C6
:101590000361A7E7D90700F1E280990700F1D8803D
:1015A000590700F1CE80190700F1C480D90600F177
:1015B000BA80990600F1B080590600F1A68019069C
:1015C0007FF55DAF802164F31F72416157E74FF4EF
:1015D000006122F4704242EA04320161CCE74FF428
:1015E000806122F4706242EA04220161C2E74FF492
:1015F000007122F0F00242EA04120161B8E74FF4F0
:10160000807122F00F0222430161AFE74FF40051D5
:1016100022F4700242EA04520161B1E74FF48051B2
:1016200022F4702242EA04420161A7E74FF48041AC
:1016300022F0706242EA04620161A3E74FF4804144
:1016400022F0706242EA0462416163E74FF40051A4
:1016500022F4700242EA0452416158E74FF480518B
:1016600022F4702242EA044241614DE74FF40061E6
:1016700022F4704242EA0432416142E74FF4806151
:1016800022F4706242EA0422416137E74FF40071AC
:1016900022F0F00242EA041241612CE74FF480711B
:1016A00022F00F022243416122E7202122F470023E
:1016B00042EA0452016147E7102122F4702242EA13
:1016C000044201613DE7082122F4704242EA0432FB
:1016D000016133E7042122F4706242EA04220161CD
:1016E00029E7022122F0F00242EA041201611FE719
:1016F000012122F00F022243016116E7402122F06E
:10170000706242EA0462016121E7402122F07062C6
:1017100042EA0462416152E7202122F4700242EA67
:101720000452416148E7102122F4702242EA044247
:1017300041613EE7082122F4704242EA04324161ED
:1017400034E7042122F4706242EA042241612AE76C
:10175000022122F0F00242EA0412416120E7012155
:1017600022F00F022243416117E700BF806880B278
:10177000704700BFC06880B2704700BF016170470A
:10178000416170470AB9416170470161704700BF0C
:101790000028194B00F44012B4BFDB695B68B2F556
:1017A000401F30B484B21ED0C20213D50322C0F34E
:1017B0000345AA4023EA020343F0706319B1420DC6
:1017C0001201944023430C4A0028B4BFD3615360F4
:1017D00030BC7047420D120104FA02F223EA020300
:1017E00043F07063EAE7044D23F070636A6822F007
:1017F00070626A60E2E700BF0000014010B40F248D
:1018000001F0FC0303F1804303F5803301F0030191
:101810009A6889008C4022EA04029A609A6800FA69
:1018200001F11143996010BC704700BF014B186073
:10183000704700BFD8004242234A30B4536803F0D7
:101840000C03042B38D0082B25D00BB31F4A1346AA
:1018500002601D4A1E4C51681E4DC1F30311615CAC
:10186000CB4043605168C1F30221615C23FA01F16E
:1018700081605168C1F3C221615CCB40C360526892
:10188000C2F38132AA5C30BCB3FBF2F30361704750
:101890000E4B0360DDE753685168C3F38343C9030C
:1018A00003F102030BD5526892034CBF0A4A0B4A5C
:1018B00002FB03F30360CCE7084B0360C9E7084A67
:1018C00002FB03F30360C4E70010024000127A0039
:1018D0000400002000000020801A060000350C00E3
:1018E00000093D00044A936919B923EA0000906198
:1018F000704718439061704700100240044AD36952
:1019000019B923EA0000D06170471843D0617047CD
:1019100000100240274A038890429BB212D002F581
:10192000006290420ED0B0F1804F0BD0A2F59832F9
:10193000904207D002F58062904203D002F58062A7
:10194000904203D14A8823F0700313431A4A90420D
:1019500027D002F58062904223D070B423F4407304
:10196000CE888D880C889BB202F58C32334390422E
:101970000380858504850ED0104B98420BD003F56B
:101980004063984207D003F58063984203D003F583
:101990008063984201D10B7A0386012370BC838255
:1019A000704703808B8883850B880385012383829E
:1019B000704700BF002C014000100040003401407F
:1019C000028CF0B422F001021204120C0D89028480
:1019D000038C4E888488028B23F0020335431B045A
:1019E00022F07302184E1B0C12040F882B43120CAA
:1019F000B0429BB2A4B242EA070215D0134DA842EE
:101A000012D005F54065A8420ED005F58065A842C4
:101A10000AD005F58065A84206D0C9888480028373
:101A2000F0BC8186038470474E898D89CF8923F06D
:101A30000803334324F440748E883D4323F00403A9
:101A40002C433343A4B2E8E7002C014000340140AA
:101A500000234FF6FF72036042600372704700BFBD
:101A6000038829B923F001031B041B0C0380704772
:101A70009BB243F001030380704700BFB0F84430CD
:101A800021B9C3F30E03A0F8443070476FEA434313
:101A90006FEA53439BB2A0F84430704783899BB2EE
:101AA0001AB923EA01018181704719438181704786
:101AB000038B23F008031B041B0C1943018370479D
:101AC000C94389B20182704770B50D460446038A46
:101AD000CA889BB223F440531343898903828289C5
:101AE000AE8822F4B05323F00C031B0428891B0C8E
:101AF0006A893343034313439BB2A381A38A86B00D
:101B00009BB223F440730B4301A8A382FFF794FE1A
:101B100004991A48039BA289844208BF0B4612F419
:101B2000004F2A6803EB830314BF5200920003EBBB
:101B30008303B3FBF2F36422114DA189A5FB03607B
:101B4000400902FB10330A044FEA00100AD41B01BB
:101B50003233A5FB0323C3F3431303439BB2238117
:101B600006B070BDD9003231A5FB0131C1F342127C
:101B700042EA00039BB2238106B070BD00380140E9
:101B80001F85EB51838929B923F400531B041B0CD7
:101B9000838170479BB243F400538381704700BF39
:101BA000012310B401F01F04C1F34211012903FA0B
:101BB00004F30FD002290CBF103014302AB9026888
:101BC00010BC22EA030303607047026810BC134391
:101BD000036070470C30F1E7C1F308018180704762
:101BE0002DE9F041082710254FF0030882B0144C6E
:101BF00002AE38460121FFF775FE26F8045D314636
:101C000020468DF807508DF80680FFF7F9FB38461F
:101C10000121FFF767FE314620468DF806808DF8DA
:101C20000750ADF80470FFF7EBFB29462046FFF79D
:101C3000A7FD39462046FFF7A3FD02B0BDE8F081BD
:101C4000000C014010B50748FFF794FDC0F30014E5
:101C50000448FFF78FFD030748BF44F00204204605
:101C600010BD00BF000C014010B5054C10212046EE
:101C7000FFF786FD2046BDE810400821FFF780BD34
:101C8000000C014038B50F4D6B783BB9044630B1BC
:101C900042060DD4230610D400232B7338BD102127
:101CA0000948FFF76DFD08210748FFF769FDF3E7D5
:101CB00010210548FFF762FDECE708210248FFF715
:101CC0005DFDE9E7C8100020000C014038B5124C5A
:101CD0002378022B04D0054604F02EFA637803B172
:101CE00038BD35B16A060DD42B0610D400232373FA
:101CF00038BD10210948FFF743FD08210748FFF7C9
:101D00003FFDF3E710210548FFF738FDECE7082118
:101D10000248FFF733FDE9E7C8100020000C01403E
:101D20000B4B0C4910B45C1C091B03F58060CA5CAA
:101D300003F8012F9842FAD123780A2B06D04FF4EA
:101D40008062FF21044810BC09F085BB10BC7047BD
:101D50002B0C002001FC01082C0C0020014B185C0E
:101D6000704700BF2C0C0020014B1954704700BF76
:101D70002C0C00202DE9F0410646002A40D000231B
:101D8000214F441E3C448D18002B4FEAD31318BF3B
:101D9000012311F8010B0344A942DBB204F8010F3F
:101DA000F2D116441948BB55FFF73EFA042801D07A
:101DB000BDE8F0814FF6FF77154D144CDFF85480E5
:101DC000AE1E35F8041CB94202D02046FFF7A2FA35
:101DD0003188A01CB94204F1040409D0FFF79AFA33
:101DE000444505F1040506F10406EAD1BDE8F08199
:101DF000444505F1040506F10406E2D1BDE8F08191
:101E00001346014FCEE700BF2C0C002000FC010858
:101E1000300C002000000208F0B4CAB100230E4FBD
:101E20004D1E3D448618002B4FEAD31318BF0123E3
:101E300015F8014F00F8014B2344B042DBB2F2D158
:101E40001144785CF0BCC01AB0FA80F040097047C9
:101E50001346014FF5E700BF2C0C002008B5002108
:101E60005022074809F0F7FA0649002005F07EFEE7
:101E700000B108BD0720BDE8084004F053BC00BF16
:101E80002C100020581000200149024807F034BEF1
:101E9000F0100020481000202DE9F04F0746DFF831
:101EA000AC92482200219FB0484609F0D4FAA34BD7
:101EB00003CB1C889A78C9F80100C9F80510A9F865
:101EC000094089F80B203B78242B00F0298110234E
:101ED00000220B93042309920A934FF00008BD5C83
:101EE0008DF857204446CDF82080CDF81880CDF8E5
:101EF0001C80002D00F0F180A5F14106F3B2192BF2
:101F000000F2BD82531C0DF1570116AA38468DF818
:101F1000573002F0DDF8002800F0B682DDF858B046
:101F20005846FFF7C7F85FFA80FA5046FEF76CFE96
:101F300001465846FEF7B2FD8149FEF7B9FE09F0A9
:101F400087FB472D82B228D04D2D40F09280002A89
:101F500040F0D582BAF11E0F00F215810123794AB3
:101F600003FA0AF3134240F0A38013F4607F40F0B9
:101F7000C78013F0380F00F00681BAF1040F00F0AB
:101F80001282BAF1050F00F09582BAF1030F00F04A
:101F900018824FF480520C2393E0BAF1650F00F2DF
:101FA000F280DFE81AF0DB00DB00DB00DB00380149
:101FB000F000F000F000F000F0004801F000F00048
:101FC000F000F000F000F0006101610161016701C3
:101FD0006701F000F000F000F000F000F0004801B0
:101FE000F0004801F000F000F000F000F000F00018
:101FF000F000DB00F000FC00F000F0000A01F0004F
:10200000F000F000F000F0000A01F000F000F00035
:1020100038011B011B011B011B011B011B01F000EF
:102020002101F000F000F000F000F000F000F000FE
:10203000F000F000F000F000F000F000F000F00020
:10204000F000F000F0005C01F000F000F000F000A3
:10205000F000F000F000F000F0002501250148013B
:102060002E012E01F000F000F000F000F00034012D
:102070003401192E00F28780DFE816F03D0185005B
:1020800085008500850047018500850057016001B6
:1020900002011101850086018500690185006E013C
:1020A000730179018500850085001F012901330135
:1020B000BAF1000F6CD0BAF1010F49D14FF40062B0
:1020C0000B2344FA03F3D90700F1048214439DF86B
:1020D0005720BD5C002D7FF40FAF069B23B1079BFB
:1020E000002B08BF0223079318F0200F00F07B811C
:1020F000154BD9F824209A4240F375811B2443E004
:10210000BAF1080F00F04881BAF1090F00F0C1815F
:10211000BAF1070F00F04E814FF400520D23D0E7C3
:10212000012389F801300993112300220B93052321
:1021300089F802200A930322CFE600BF2C1000206A
:102140000000C84207000040809698007C100020E4
:1021500089F808A04FF400620B23B2E7079B002B1D
:1021600040F07E82BAF1260F89F801A040F0C981C3
:10217000A2F114039BB21E2B05D8C94921FA03F31F
:10218000DD0700F12581142420461FB0BDE8F08F43
:1021900003234FF4006289F808300B2391E70721ED
:1021A000002A40F0AC8144FA01F3D80700F1928193
:1021B00001238B401C43A4B289E7079B002B40F00E
:1021C0004F82BAF1310F00F0A8810A2ADBD1012336
:1021D00089F80630032308210793E4E7AAF1360AB9
:1021E00089F807A00921DBE7002ACCD10A21DAE728
:1021F000002A40F07181AAF15A0A89F804A003214B
:10220000D1E7CAF15E0A89F802A00521C8E789F87A
:1022100000A00F21C4E7BAF11C0F89F800A000F05C
:102220005081BAF11E0F00F04C81BAF15C0F00F042
:1022300048810021B4E7002A40F05781079B002B1A
:1022400040F00E82BAF11C0F89F800A000F0628104
:10225000BAF11E0F00F05E8101230793E5E75023DA
:10226000012189F801309BE7AAF1110A89F805A03C
:10227000022195E7CAF1150A89F803A006218FE724
:10228000089B082543F0040308930323C9F818B0FA
:1022900048FA03F3DB070BD445EA080817E70423E1
:1022A00048FA03F3DB0789F820A04FF01005F3D5B7
:1022B000192420461FB0BDE8F08F069BC9F838B03E
:1022C00043F0010306934FF480650A23E0E7069B81
:1022D000C9F83CB043F0020306934FF400650B23AA
:1022E000D6E7069BC9F840B043F0040306934FF4C9
:1022F00080550C23CCE7069BC9F844B043F0080393
:1023000006934FF400550D23C2E701250023C9F8B9
:102310000CB048FA03F3DA07CAD458460021FEF796
:1023200065FE0028B8D004242EE7089BC9F810B039
:1023300043F00103089302250123A9E7089BC9F88C
:1023400014B043F00203089304250223A0E7C9F860
:1023500028B040250623DCE7C9F82CB080250723E8
:1023600096E7C9F830B04FF480750823D1E74D499E
:102370005846FEF759FE002840F01C8289F834A028
:102380004FF400750923C4E75846FEF76DFE20257B
:10239000C9F824000523BCE740234FF4005289F814
:1023A00009300D238DE620234FF4805289F80A303E
:1023B0000C2386E680234FF4005289F809300D2360
:1023C0007FE610234FF4805289F80A300C2378E618
:1023D000354B0121A3FB0223DB08763B89F8013052
:1023E00002230793DFE6099B002B40F08E8099F8CB
:1023F0000230012B00F0D4802C4B5B783BB918F0F5
:10240000010F40F09280294B1B69C9F80C3018F479
:10241000807F03D1254BDB68C9F8303099F8005034
:10242000042D00F08F80642D00F0A980652D00F050
:10243000C78099F80530002B00F0CB80012B40F0CD
:10244000D180002602270F9305230E960D970C933B
:1024500099F80330012B00F0CE80079B032B00F08E
:10246000F480134B0DF1680E0FCB8EE80F00A3051F
:102470007AD599F8070006286AD91D2484E6012434
:1024800020461FB0BDE8F08F022420461FB0BDE8F3
:10249000F08F00234FF4005289F809300D2310E625
:1024A0000104104000007F43CDCCCCCC2C10002088
:1024B0005810002000234FF4805289F80A300C2372
:1024C000FFE512B10A2A7FF45EAE504489F800009D
:1024D000002168E6152457E60A2A7FF454AEBAF1C3
:1024E0005A0F3FF450AE04215DE6BAF11C0F89F893
:1024F00000A0E7D0BAF11E0F7FF497AEE2E71724F1
:1025000042E60223012107934AE618F0010F0CD19D
:10251000162439E601230793D7E79DF81C300821DC
:1025200089F80630032307933DE699F80330012B21
:102530007FF46DAFD9F80C00B449FEF7B9FBC9F8C8
:102540000C0064E718F0400F40F08C801C241BE660
:10255000AF4B9B79834207D01AA905F007FB0028EF
:1025600000F0268199F800500A2D00F0F5805C2DCE
:102570007DD1069B002B40F083811A2404E608F0ED
:102580005003502BE2D108F49073B3F5907FDDD166
:1025900018F0010FDAD0A3F2922308EA030848E703
:1025A000079B022B7FF433AF99F80130502B3FF497
:1025B0002EAF002B3FF42BAF18F0010FA8D026E769
:1025C00008F0C003C02BC1D128F0C0081FFA88F85A
:1025D0002FE71F460D93032301260C9302230E962B
:1025E0000F9335E70623022601270C9300230E964E
:1025F0000D970F932CE7069BDA0707D5D9F838001B
:102600008249FEF755FB069BC9F83800980707D5A5
:10261000D9F83C007D49FEF74BFB069BC9F83C000E
:10262000590707D5D9F840007849FEF741FB069BCA
:10263000C9F840001A077FF510AFD9F84400734974
:10264000FEF736FBC9F8440007E799F80630012B7E
:102650007FF407AF069B042B3FF403AF252493E5DB
:10266000182491E528F040081FFA88F8E1E6079B56
:10267000032B4CD0069A002A49D0654999F80430BA
:10268000D1F84CA0002B40F0C980352D134600F046
:102690009780D00740F15881D9F838101A98FEF782
:1026A000FFF95B4BD96BFEF7FBF9069BC9F83800C5
:1026B000990740F14481D9F83C101B98FEF7F0F9D6
:1026C000534B196CFEF7ECF9C9F83C00069B5A070E
:1026D00040F12B81D9F840101C98FEF7E1F94C4BE2
:1026E000596CFEF7DDF95146FEF7DAF9C9F84000FA
:1026F000069B1B0740F185801D99D9F84400FEF721
:10270000CFF9434B996CFEF7CBF9C9F844001E2D65
:1027100000F06E81352D6ED01C2D00F0218199F8CE
:102720000150502D00F016814FF0000A079B022B3C
:1027300000F02481099A002A3ED028F021081FFACF
:1027400088F3079919B123F470581FFA88F3002B06
:1027500000F03381242417E5069B002B3FF40DAFD6
:1027600018F0500F3FF4F2AED9F82800FEF7A2FCA3
:10277000C0B206283FF681AE99F82030142B06D05F
:10278000022B7FF400AD18F0800F7FF4FCAC28F032
:1027900050081FFA88F8002800F06F8301385FFAAC
:1027A00080FA1C49504605F0E1F9002840F04283C8
:1027B0000724E9E42624E7E4174B08EA0303C0E70B
:1027C000D80704D4124BDB69C9F83830069B990747
:1027D00004D40F4B1B6AC9F83C30069B5A0704D43B
:1027E0000B4B5B6AC9F84030069B1D0703D4084BAE
:1027F0009B6AC9F8443099F80130012B8FD91E2407
:10280000C2E4034B9B6AC9F8443080E73333CB41C1
:102810002C1000208C100020DEFCFFFF352D13460D
:10282000CED0D00740F1DF80934BD9F83810D8696B
:10283000FEF736F9C9F83800069B990740F1CE80BB
:102840008D4BD9F83C10186AFEF72AF9C9F83C00FC
:10285000069B5A0740F1BD80874BD9F84010586A53
:10286000FEF71EF9C9F84000069B1B07C9D5824B2D
:10287000D9F84400996AFEF713F9C9F8440046E70D
:102880007D4BDD6C069BD9074AD57B4B1A99D869DD
:10289000FEF704F9D9F83810FEF700F9C9F8380046
:1028A000069B9A0737D5744B1B99186AFEF7F6F802
:1028B000D9F83C10FEF7F2F8C9F83C00069B5B071C
:1028C00024D56D4B1C99586AFEF7E8F8D9F84010EA
:1028D000FEF7E4F82946FEF7E1F8C9F84000069B48
:1028E0001D0727D5644B1D99986AFEF7D7F8D9F8CC
:1028F0004410FEF7D3F8C9F844004FF0000A99F8E5
:102900000150502D7FF412AF1F243DE45A4B5B6CF5
:10291000C9F84030E3E7584B1B6CC9F83C30CDE7B1
:10292000554BDB6BC9F83830BAE7534B5B6AC9F8D3
:102930004030DDE6504B9B6CC9F84430DDE74E4B30
:102940001B6AC9F83C30C1E64B4BDB69C9F838302B
:102950001346ADE6069B002BD6D1099A9A46EAE6C5
:102960004649062005F002F900283FF421AF069BF6
:10297000002B45D1099A9A460793DCE6ADB10021B8
:10298000D9F80C00FEF728FB00287FF4C1AD8C2D90
:1029900000F0928200F28882022D00F01982032D4D
:1029A00000F01882012D7FF4C5AE069B099A002B1A
:1029B000079B08BF00230793BDE61793189319934D
:1029C000002A63D024F04904002C36D01024FFF7ED
:1029D000DBBB294B5B6AC9F8403045E7264B1B6AD5
:1029E000C9F83C3034E7244BDB69C9F8383023E7B9
:1029F0002249072005F0BAF800283FF4D9AEB6E71F
:102A0000D80704D41C4BDB69C9F81030069B990722
:102A100004D4194B1B6AC9F81430069B5A0704D416
:102A2000154B5B6AC9F81830069B1D073FF565AF6B
:102A3000114B9B6AC9F81C305FE799F80030352BC1
:102A400001D0002BC2D10C4A0B4B117A5B7AD268B1
:102A50000B4317A80A498DF86430189200F0A8FBC0
:102A6000044600287FF490AB064B074D0FCB85E85A
:102A70000F00FFF789BB00BF2C1000208C10002036
:102A80007C100020B410002048100020BA4B93F8AE
:102A900058309C0714D599F80130013B022B04D91A
:102AA000099B43F04003DBB20993069B1BB1079BD4
:102AB000022B00F04483B14B5B7A102B00F02D8386
:102AC000099B03F04004AD49D9F8242099F802305D
:102AD0008A614B7013B108238DF86430D9F80C303B
:102AE000A64AD9F83050D068294613611793FEF7EB
:102AF00073FA10B1099B98060FD5A04B587A40B1D4
:102B0000099B190605D4002C00F02683002105F04E
:102B1000D3FBD9F83030994AD36014B9974BDB68AE
:102B20001893964B99F80A005B7A99F834209349E8
:102B300083420A7506D0189905F0BEFB99F80A3051
:102B40008E4A53728D4A9DF86430527A99F8090082
:102B500013438A4A8DF86430127A824209D0FFF713
:102B6000B5F899F80930854A13B1127A1343834AAC
:102B70001372824A9DF86430117A99F800200B4351
:102B8000042A8DF8643003D1D9F8280001F0A2F9A5
:102B900099F80030642B17D1D9F83000FEF78AFA83
:102BA000C5B2D9F82800FEF785FAC4B2D9F80C00EE
:102BB000FEF780FAC0B2009099F8242099F820100E
:102BC0002B46204607F004F999F80030652B0CD10C
:102BD000D9F82C00FEF76EFAC4B2D9F82800FEF737
:102BE00069FA2146C0B207F079F999F803306349D0
:102BF00099F805208B70079B0A71032B00F0448223
:102C00005E4B99F807409B79A34209D05B4D1AAB04
:102C1000AC7105F12C040FCB84E80F0006F062FFC5
:102C200099F8003099F804205449262BCA7000F016
:102C3000B38040F287805C2B7CD0662B6FD0282B32
:102C400003D14F49072004F0B9FE99F801304B4AEF
:102C5000502B137002D0079A022A41D099F80840ED
:102C6000464BDC71002C3FF48FAA03F065FA434B0E
:102C7000DB79032B2AD00121002464223F48414BF9
:102C80000170197804710229C4704470847144720F
:102C900004721A725A729A7210D000F12C012046F6
:102CA00004F064FF00283FF483AD06F01BFF2046CC
:102CB000002105F077FA2046FEF7E4FF082003F034
:102CC0005FFD00242D4BDC71FFF75EBA2D4B1B78A6
:102CD000022BF6D0082006F0B1FF03F03BF8F0E736
:102CE000012B00F01382002B00F00382023B012B2A
:102CF00040F2E8819DF86430234D43F00403099AC3
:102D000017A928468DF8643001F020F9002840F01A
:102D1000D1811B4C95E80F0084E80F009EE700234B
:102D20001A4AA2F13C01CB6353609360D36006F072
:102D3000D9FE8AE7154C144B0FCB84E80F0006F040
:102D4000D1FE82E71C2B2CD01E2B2AD00A2B7FF41D
:102D50007CAF0F4C5046214604F030FE074B9B7968
:102D600053457FF472AF94E80F000A4C84E80F00DB
:102D700006F0B8FE69E700BF041400202C10002004
:102D800048100020C8100020B41000206810002057
:102D90008C10002058100020B449062004F00EFECC
:102DA00053E79DF8643043F001038DF86430079BCE
:102DB0001BB117A9AE4800F055FEAE4DAB4C2846EE
:102DC00017A900F04FFE95E80F0084E80F003CE7DC
:102DD0000A9B0993069B002B3FF4CFAB0C9A13423E
:102DE00002D12024FFF7D0B9A34B09EB870203EBF4
:102DF0008703D969906BFDF751FE9F4B09EB860263
:102E000003EB86038346D969906BFDF747FE18F004
:102E100080050A9000F0978028F0800810229449DD
:102E200092481FFA88F808F007FB00285DD121249A
:102E3000FFF7AAB999F82030012210938E4BDFF8E2
:102E40002CB2DB6C129411930023139714465F4647
:102E5000B3461E46874D069B43FA06F1C80704D5C4
:102E6000109B142B0CD0A96A2960042C18D00134B3
:102E7000E4B2013604370435EDE799F807A090E491
:102E8000396A3868FDF70AFEA96AFDF707FE022EC7
:102E90002860EAD11199FDF701FEC9F81800E6E7AC
:102EA000129C139F5E462AE58E2D05D002D38F2DEE
:102EB0007FF440AC0B9B099305F17203DBB2012B4D
:102EC00004D8099B43F00803DBB20993069B002B4F
:102ED0003FF453AB10226649644808F0ADFA00286D
:102EE000A5D0099B03F0010225E499F80330012BDA
:102EF00006D1D9F82C006149FDF7DAFEC9F82C009B
:102F0000D9F82C100846FDF7D3FE4FF08141FDF7AC
:102F1000CFFE594605465846FDF7CAFE01462846EB
:102F2000FDF7BCFD05460A980146FDF7C1FE0146C6
:102F30002846FDF7B3FD00210546FEF757F848B1D6
:102F40002224FFF721B9089B0C9A13424AD123246B
:102F5000FFF71AB9284608F0DFFB0A9905465846DC
:102F600001F086F905F1004501462846FDF754FFBA
:102F700099F801300546032BD9F82C3008BF00F131
:102F80000045002118460893FEF730F8089B28B149
:102F900003F1004305F10045C9F82C300A99284691
:102FA000FDF786FE01465846FDF778FD4FF07C514F
:102FB000FDF77EFE023709EB8707B86059462846C1
:102FC000FDF776FE0A99FDF76BFD4FF07C51FDF79A
:102FD0006FFE0236099B09EB860603F00102B06022
:102FE000FFF7A9BB99F8033028F00E08012B1FFA50
:102FF00088F800F0B580B51C09EB8505A9680A982A
:10300000FDF74CFD0646023709EB8707B9685846BD
:10301000FDF744FD314601F02BF9A9680646B86872
:1030200001F026F9074630463946C9F82C70FDF7FD
:1030300035FD20F0004528461149FDF7F5FF002831
:103040003FF44FAF4FF07C512846FDF7EDFF0028CD
:103050007FF4EDAE0B493846FDF72AFE01462846BF
:10306000FDF7E2FF00287FF4E2AE3AE748100020C7
:10307000B41000208C1000202C1000203333CB41E2
:103080000AD7A33B6F12833A99F806304B7113B9F4
:103090000023C9F84030D9F840403F4B2146D86C56
:1030A000FDF79AFF00287FF4ABAD3B4BDC6406F0E4
:1030B00019FDA5E501287FF4D1AD3849384806F05F
:1030C0001BFDCBE5099B374DC3F3800304930F9B96
:1030D000334C03930E9BD9F82C6002930D9B17A9D8
:1030E00001932246A5F128032846009600F0F0FC43
:1030F00010E69DF864302B4D43F0010317A92846D4
:103100008DF86430264C00F0ADFC03E6254D17A980
:10311000284600F0A7FC224CFCE51F4B099A1B78BF
:10312000013B022B134612D812F040043FF4CBAC03
:1031300043F02003DBB2099303F04004C3E4099B8E
:1031400063F07F03DBB2099303F04004BBE412F0A9
:1031500040047FF4B8ACEBE7294605F0ADF8D8E4BD
:10316000114B0B9626461C46104A089B43FA05F164
:1031700011F0010F05F1010506D0114620680C92EF
:10318000FDF796FD0C9A2060042D04F10404ECD1A7
:1031900034460B9E2FE700BF2C100020F0100020BB
:1031A00048100020B41000208C1000203333CB4195
:1031B00070B50546037AC86843F00403124A2860D4
:1031C0002B7292F8583001F138049B0606D5204640
:1031D00006F0B6FC10B10F24204670BD0B4E204601
:1031E000294600F03FFC347814B10024204670BD1D
:1031F00001F04CFA0028F8D02023337005F0AEFC23
:1032000005F010F9204670BD04140020C8100020FD
:1032100030B5012185B009204FF47044FEF762FB00
:103220004823032204A9214D21F8104D20488DF890
:1032300003308DF80220FEF7E3F895F858301B07AD
:1032400006D44FF480721B4BC3F8842005B030BD08
:10325000642000F0FDFF0C210120FEF7CFFA0D21C4
:103260000120FEF7CBFA0E210120FEF7C7FA0F214D
:103270000120FEF7C3FA95F85830002213F0400FF2
:1032800014BF08210C21012302A88DF80D108DF820
:103290000C208DF80E300294FDF768FF064B04A851
:1032A00040F80C3DFDF730FF05B030BD04140020A0
:1032B000000C014000E100E0280202014FF480729E
:1032C000014BC3F88420704700E100E070B51D4851
:1032D000FEF74CFA002405461A4E1A48FEF746FA45
:1032E00001348542E4B205D03046FEF73FFA0124AE
:1032F0000546F2E7092CF0D9134B93F858305B06DA
:103300005CBF85F47045ADB2D5B1104A13885188C1
:103310001D4219BF03200123002302200D4218BFC4
:103320000346918843F004000D4208BF1846D28836
:1033300000F0FF03154243F0080008BF184670BDB7
:10334000284670BD000C01400414002070C800081D
:1033500008B54FF48050FDF747FF88BB4FF400508D
:10336000FDF742FF38BB4FF48040FDF73DFFE8B961
:103370004FF40040FDF738FF98B94FF48071134ABD
:10338000134BC2F884111B78012B02D0114B1B7810
:1033900003B108BD00F06CFEBDE80840012006F056
:1033A00061BC4FF40040FDF72DFFE6E74FF480408D
:1033B000FDF728FFDCE74FF40050FDF723FFD2E7CD
:1033C0004FF48050FDF71EFFC8E700BF00E100E0AA
:1033D000C810002000110020974B5B7803B17047A4
:1033E0002DE9F04F05460624944993B0069005F068
:1033F0000105086849680D9309AA0B930C9305F021
:10340000FF0303C28DF834400793002D40F0CD80B8
:103410000024DFF83C92069BC3F3400305935BB1A5
:103420008749D9F83400FDF743FC0646014620469B
:10343000FDF7F0FD00B93446069BC3F38003049307
:103440005BB17F49D9F83800FDF732FC06460146EA
:103450002046FDF7DFFD00B93446069BC3F3C003E9
:1034600003935BB17649D9F83C00FDF721FC064691
:1034700001462046FDF7CEFD00B93446EBB202937B
:1034800004230127D9F86050DFF8C881DFF8C8A10C
:1034900001936C490EA806F02FFB029B002B00F055
:1034A00050810021B9F85A30664ADE07116040F1B8
:1034B0005781002F40F057810E9402230120BDF860
:1034C0002460059A7AB10020B9F85A205D49486015
:1034D000900740F13A81002F40F03A810F9418464E
:1034E000BDF826201643049B83B10021B9F85A3059
:1034F000544A013091605907C0B240F13881002F21
:1035000040F038811094BDF828301E43039B83B1EE
:1035100000214C4AB9F85A300130D1601A07C0B2C4
:1035200000F11A810FB904F10044BDF82A3011945A
:103530001E43FDF765FB08F0EFF83F4B0146DE80C8
:103540002846FDF7B5FB0BA90B900EA801F08CF9EE
:103550000423394A3C4D137105F000FB04F062FF6F
:10356000002F56D105F0FAFA98F8003013F0340F16
:1035700040F0BD803307F3D105F078F9B9F8640065
:1035800000F066FE87F00106FFB93049D9F86800FF
:10359000FDF78EFB019B0446013B13F0FF03D9F8B6
:1035A0005C5001931BD0374673E7DFF8A4902449A1
:1035B000D9F83000FDF77CFB00210446FDF72AFD19
:1035C00000287FF428AF002425E7019BD9F8684044
:1035D000013B13F0FF03D9F860500193E3D1079B3F
:1035E00013B10023174A1360059B13B10023154A3A
:1035F0005360049B13B10023124A9360039B13B1E1
:103600000023104AD36000230B4A137113B0BDE8A6
:10361000F08F2846FEF7AAF8002483462846FEF7D6
:10362000A5F801345845E4B218D02846FEF79EF8B4
:1036300001248346F2E700BFC810002078C80008C4
:103640000000C0BFF0100020000C01400000A040AE
:1036500004140020DD10002070C80008092CDDD9FA
:1036600099F858305B065CBF8BF4704080B200283C
:1036700033D0BAF80030BAF80220184214BF012340
:1036800000231042BAF8042018BF43F0020310428E
:10369000BAF8062018BF43F004031042BDF82420F6
:1036A00018BF43F00803164202D0DC0748BF964318
:1036B000BDF82620164202D0980748BF9643BDF8B1
:1036C0002820164202D0590748BF9643BDF82A2049
:1036D000164202D0DB0818BF9643444BDE8005F04B
:1036E0003DFA98F8003013F0340F3FF443AF98F8E8
:1036F0000040E4B2E50641D4A0060AD477B16207DF
:103700006AD43B4B1B78002B6AD1042006F0A0FA48
:1037100032E7072006F0A6FA002FF0D13548FEF771
:1037200025F83E460446334D2846FEF71FF801367D
:10373000A042F6B226D02846FEF718F80126044625
:10374000F2E71E4618460123BBE6002F7FF4C6AE03
:1037500004F100420F92C2E6002F3FF4E6AEE2E62B
:10376000002F7FF4A9AE04F100430E93A5E6002FCD
:103770007FF4C8AE04F100431093C4E6062006F0BF
:1037800071FAB9E7092ECFD999F8583059065CBFBC
:1037900084F4704080B20028B3D0BAF80030BAF890
:1037A0000220184214BF012300231042BAF804205B
:1037B00018BF43F002031042BAF8062018BF43F0C6
:1037C00004031042069A18BF43F008031A4298D027
:1037D000082006F047FA94E7092006F043FA90E73C
:1037E00000F046FC02F0B6FA10E700BFC810002057
:1037F00000110020000C014010B506F0A1F9C8B17D
:1038000001230D4C2078E370082808D000F030FC2C
:10381000022006F027FABDE8104002F09BBA06F03D
:103820000DFA02E02378002BF0D002F093FA6378CF
:10383000002BF7D010BD00BFC8100020F0B5074620
:1038400087B04FF44070FDF755FC00260125272373
:1038500001A88DF804308DF805608DF80750FDF74C
:1038600053FC29464FF48020FEF748F829460920EA
:10387000FEF738F84FF48061182203231C4CADF892
:103880000010204669468DF803208DF80230FDF7C0
:10389000B7FD4FF40062042369462046ADF80020CE
:1038A0008DF80330FDF7ACFD0C23A4F54444ADF8CE
:1038B0000C60ADF80E60ADF81060ADF81460ADF8B6
:1038C0001230A38920469BB243F00C03029702A951
:1038D000A381FEF7F9F82A46204640F22551FEF76B
:1038E0005FF929462046FEF74DF907B0F0BD00BF4D
:1038F000000C01402DE9F04F012183B01020FDF7AD
:10390000F1FF4FF400501023022202A921F8040D08
:1039100000F1804000F570408DF807308DF80620EA
:10392000FDF76EFD07F09AFA07F0A4FA07F04AF8DF
:10393000FDF76EFCFEF7F4F92B494FF064080A68B6
:103940002A4D22F004020A6003F0B2FE04F086FA67
:1039500005F030F805F066FE4FF41650FFF76EFFE5
:1039600000210A460C462248224EDFF894B0DFF8C8
:1039700094A0DFF89490204F016041608160C160A5
:103980001E4B8BF80040AC608AF800402C6089F830
:1039900000402A701C706C60EC602C6185F8088017
:1039A00085F8098085F80A8034607460B460F4603A
:1039B0003C7003F0D7FFFEF751FA04F0EBFAFEF784
:1039C0000FF9FFF725FC01F02BFC00F01DFE04F0C1
:1039D0004DFF01F0ABF9FEF757FA02F02FFF02F0AE
:1039E000E7FD2A78CCE700BF10E000E0C810002017
:1039F000F0100020E0100020DC100020C410002097
:103A0000DE100020DD1000200011002042F22831DD
:103A1000094B30B4002501241A4601FB00F0586020
:103A20009D601C60136803F00113012BFAD0002382
:103A300030BC13609360704710E000E010B5074C95
:103A40004FF4005122780648FDF79CFE237813F1CD
:103A5000FF3318BF0123237010BD00BF14000020E6
:103A600000100140F8B5174D0E4695F8583007463E
:103A70009906154C04D52378202B0AD0FFF7BCFEFD
:103A80002378022B05D1F8BD00F02EFE38B101F0ED
:103A900035FC02F05FF96378002BF5D0F3E7384688
:103AA000314600F0E1FE0028EDD195F858309A0734
:103AB000E9D5337ADB06E6D571681020BDE8F84019
:103AC00004F0FABB04140020C8100020000000001D
:103AD0002DE9F04F1F4691B09DF86C40834653F896
:103AE0002450A300D6180F900B91284652F82410AA
:103AF0000296FE1807920C96FCF7D2FF9DF87060B4
:103B0000079A57F82680B3001F4452F826108246C1
:103B10001A440390404604920D97FCF7C1FF5146AA
:103B2000814605905BF82400FCF7B8FF494604463F
:103B30005BF82600FCF7B2FF05F10045064621467A
:103B40002846FDF7B5F808F10048074631464046DB
:103B5000FDF7AEF801463846FCF7A2FF3146814634
:103B60002846FDF7A5F8214606464046FDF7A0F891
:103B700001463046FCF792FF494607F0CBFD9DF821
:103B8000787006461A9C9DF87490002F00F0D08043
:103B9000FCF742FCA8A3D3E9002382468B46FCF73E
:103BA00015FF002840F0E980DFF8B0B22146DBF8CD
:103BB0004C702046FCF774FF3946FCF76FFF39461E
:103BC000FDF776F807F0A8FD4FF07C510746204638
:103BD000FDF76EF83146FDF76BF8394620F00040EE
:103BE000FDF71AF907F0F4FCFDF764FA83B20193CC
:103BF000002B00F06B810B9B01981C7A220700F1CF
:103C0000AE80FDF701F8074639464FF07E50FDF7CC
:103C100003F9044601463046FDF74AF8079B0F9A20
:103C200053F8291007460E9052F82900FCF736FF8A
:103C30002146FDF73DF8394606903846FDF738F83D
:103C4000014604464FF08040FCF728FF80490646B5
:103C50003846FDF72DF8214607467E48FCF71EFF43
:103C600001463846FDF724F8079B08904FF07C5139
:103C7000304603EB8907FDF71BF8019B0990012BE8
:103C800000F0248101264FF00009734CB9F10B0FAD
:103C900000F2E68029460898FDF70AF84146824678
:103CA0000998FDF705F801465046FCF7F9FE29464C
:103CB00082460998FCF7FCFF414605460898FCF748
:103CC000F7FF01462846FCF7E9FED046054609F114
:103CD00001095FFA89F903992846FCF7E1FE029B86
:103CE000059918604046FCF7DBFE049B06991860B6
:103CF0003868FCF7D5FE38609BF858309B0605D530
:103D00002378202B0CD00798FFF776FD2378022B21
:103D100006D151E000F0E8FC002839D001F0EEFABD
:103D200002F018F86378002BF4D011B0BDE8F08FE2
:103D3000FCF772FB42A3D3E9002382468B46FCF7D3
:103D40003BFE00283FF430AF3FA3D3E900235046A9
:103D50005946FCF703FAFCF74DFE064624E7FCF74C
:103D600053FF0B9B014607461868FCF7A1FF0B9B0E
:103D700024F0080418601C7246E733A3D3E900233B
:103D800050465946FCF7E8F9FCF734FE06460BE7C7
:103D9000DDF82CA00798514600F066FD60B99BF84D
:103DA0005830980708D59AF80830D90604D50B9BE7
:103DB0001020596804F080FA6378002BB5D10136E1
:103DC000019AB3B29A423FF661AF9BF85830990618
:103DD00005D52378202B0FD00F98FFF70DFD237802
:103DE000022BA2D001F0B6FF6378002B9DD100F02A
:103DF0007BFC50B101F082FA01F0ACFF6378002B3C
:103E000093D100F071FC0028F4D10B9C0F9821464F
:103E100000F02AFD002888D19BF858309A0784D5F5
:103E2000237ADB0681D510200B9B596811B0BDE8C1
:103E3000F04F04F041BA00BF8DEDB5A0F7C6A0BEAB
:103E40008DEDB5A0F7C6A03E182D4454FB211940B6
:103E5000ABAA2A3E0000C040C81000200414002075
:103E60003046FCF7D1FE0E99FCF722FF054607F01D
:103E70007BFB8046284607F017FC0C9B82461B689C
:103E8000404603F1004319460A930D9BD3F8009076
:103E9000FCF70EFF494605465046FCF709FF014670
:103EA0002846FCF7FDFD0A9B054619465046FCF7DF
:103EB000FFFE494682464046FCF7FAFE0146504660
:103EC000FCF7ECFD4FF00009804604E7004C7CE76E
:103ED000C8100020074B1B78022B09D010B50446F0
:103EE00002F02AF92046BDE81040002100F078B920
:103EF000704700BFC810002010B50446FFF7DEF978
:103F0000B4B12046FFF768FA01F024FF0D4B5B784F
:103F10006BB9FDF7B9FF00F009FF4FF47040FDF7F2
:103F200071F94FF48072084BC3F884215A6010BDB8
:103F30000420FFF751FA0320FFF74EFA0820FFF79D
:103F40004BFAE1E7C810002000E100E02DE9F04164
:103F5000424C2378022B0CD017460E46054602F041
:103F6000EBF894F80180B8F1000F05D00220BDE80D
:103F7000F0810020BDE8F081C7F3C00084F805801F
:103F800001F074F901F086F940B1042005F06AFEF1
:103F900001F0E0FE404601F069F9E7E7DFF8CC8088
:103FA00098F85830980605D52378202B0BD0284652
:103FB000FFF722FC2378022B05D109E000F094FBE7
:103FC00070B301F09BF901F0C5FE6378002BF5D0CA
:103FD0000123234D02202B7005F030FE01F0BAFEC4
:103FE0006378002BC2D12378002BF7D12B78012BDB
:103FF00028D001236371002318462B7001F036F995
:1040000001F0A8FE04F032FC00F0FEFA00F08EFE93
:1040100002F016FF6079003018BF0120BDE8F08182
:104020002846314600F020FC0028D1D198F85830BD
:104030009907CDD5337ADA06CAD57168102004F015
:104040003BF9C5E7FB0605D5064B074E0FCB86E8C7
:104050000F00D0E7052005F005FECCE7C8100020D2
:10406000DE100020F0100020E010002004140020DA
:1040700008B5144B1B78DB0600D508BD102005F0F1
:10408000DDFD04F02FF8FDF7EFFD0F4A137813F074
:104090002C0F08D0042B0CD0032005F0E3FDBDE865
:1040A000084004F0FFB9127912F0060FE5D0042B96
:1040B000F2D1064B1B78002BF1D1062005F0D2FD82
:1040C000EDE700BFDD100020C81000200011002027
:1040D0002DE9F04F0C7883B0035D04442D2B65D09F
:1040E0002B2B68D04FF00008651C0026344637465D
:1040F000B6460CE00134E4B2082C11D80EB1013FF1
:104100007FB20EEB8E0E03EB4E0E15F8013B303BEB
:10411000DBB2092BEED9FE2B07D136B90126F4E725
:10412000002EF2D101377FB2EFE7002C37D0824664
:10413000704601919146FCF763FD00218346FCF730
:104140004BFF08BB791C12DA3E46224C58462146EA
:10415000FCF7AEFDB31C5EB2721C8346F6DBFFB209
:10416000C7F1FE0303F0FE031F4402377FB27B1C3E
:1041700026D04FB1184C58462146FCF799FD013F17
:104180007FB28346002FF6D1B8F1000F0BD1012486
:10419000A5EB0A05019B013DC9F800B01D70204642
:1041A00003B0BDE8F08F0BF1004BF0E7A51C63787E
:1041B0004FF0010899E74FF000086378A51C94E7D9
:1041C00058460649FCF774FD8346B8F1000FDED06F
:1041D000E9E700BF0AD7233C00002041CDCCCC3D0D
:1041E00070B50E461849FCF763FD07F07DF9FCF742
:1041F00061FF80B2B0B1154D6B789BB9441EA4B27B
:104200008EB14FF6FF7608E0013C3220A4B2FFF7F2
:10421000FDFBB44206D06B78ABB901F079F8AB780E
:104220009B07F1D570BD4FF6FF7601E06B784BB977
:10423000013C01F08FFDA4B23220FFF7E7FBB4424E
:10424000F4D1EFE770BD70BD0000A041C8100020A0
:1042500060B138B54FF6FF75441EA4B2013C012091
:10426000A4B2FFF7D3FBAC42F8D138BD704700BF12
:1042700038B50D460146FCF71BFD29460446284685
:10428000FCF716FD01462046FCF70AFCBDE8384065
:1042900007F042BAF8B50446476800213846266858
:1042A000A568FCF799FE00284ED139463846FCF740
:1042B000FFFC002107462846FCF78EFE00284AD165
:1042C00029462846FCF7F4FC01463846FCF7E8FB93
:1042D000002105463046FCF77FFE00283FD13146DD
:1042E0003046FCF7E5FC01462846FCF7D9FBE568BB
:1042F000074600212846FCF76FFE00282DD12946ED
:104300002846FCF7D5FC3946FCF7CAFB07F004FA4F
:10431000074601464FF07E50FCF77EFD31460546CC
:10432000FCF7C6FC294620606068FCF7C1FC294602
:104330006060A068FCF7BCFC2946A060E068FCF760
:10434000B7FCE0603846F8BD002128460027FCF79E
:1043500043FE0028B4D00021B7E70020D3E70021B6
:10436000C2E700BFF8B50C680D460646002120469E
:10437000FCF732FE002840D121463068FCF74CFDA6
:1043800020F0004420462149FCF73AFE002834D0B2
:104390006F6800213846FCF71FFE50B93946706837
:1043A000FCF73AFD20F0004739462046FCF728FE8E
:1043B00050B3AF6800213846FCF70EFE50B93946BD
:1043C000B068FCF729FD20F0004739462046FCF78D
:1043D00017FEB8B1ED6800212846FCF7FDFD50B985
:1043E0002946F068FCF718FD20F0004529462046D4
:1043F000FCF706FE18B12046F8BD044CC8E72C4671
:104400002046F8BD3C46E5E73C46D2E7FFFF7F7F0C
:104410002DE9F04F774B83B01B780093002B75D0BC
:10442000754A5C1E92F80080E4B2A04501926AD001
:10443000724DC4EBC40705EBC707796A386AFCF70D
:1044400037FC0146FCF72CFBD7F81CB081465946D7
:1044500007F1180AFCF7D4FD00B9D946CAF8009054
:104460004FF0230B002C6FD0009B023B5FFA83FBC5
:104470006AE0604B1B780093CBEBCB030BF101049C
:10448000E4B205EBC30A019B242C08BF002493F877
:1044900000B02EE0DAF81890D7F818804846414668
:1044A000FCF7A4FDA8B1DAF82410DAF82000FCF734
:1044B000FFFB0146FCF7F4FA4946FCF7F1FA8146A6
:1044C00001464046FCF7B0FD18B1C846A346C7F800
:1044D0001890321B05EBC202D0694146FCF77CFD07
:1044E000631C002818BFA346DCB2242C08BF00249C
:1044F000BA46009BE600371B9C4205EBC707C9D1B3
:10450000019B83F800B003B0BDE8F08F3A4B93F8FD
:1045100000800193B8F1230FF5D0384DD5F8C817B6
:10452000D5F8CC07FCF7C4FB0146FCF7B9FAD5F87F
:10453000C47704463946FCF763FD00B93C464FF0AA
:10454000220B2F4FC5F8C047D84545D0DFF8B490AF
:1045500029E05FFA82FB99F800205A4533D0C6EB78
:10456000C60605EBC60ADAF81C60DAF81800314610
:10457000FCF732FD98B9DAF82410DAF82000FCF7DD
:1045800097FB0146FCF78CFAB969FCF789FA0746F4
:1045900001463046FCF748FDD8B1CAF81870C3454B
:1045A00027463FF466AFCBEBCB040BF1FF3205EBB4
:1045B000C4045E46BBF1000FCBD14FF0230B99F83A
:1045C00000205A45CBD104F0B3FA019B93F8008048
:1045D000C5E7CAF81860E2E70A4A12785A457FF43C
:1045E0004BAF04F0A5FA034B1B780093019B93F8A3
:1045F00000B041E7F4090020F50900201402002072
:10460000BC090020F609002038B524220021074803
:1046100006F021FF00230121054D064C0648074AFC
:104620002B7023700370117038BD00BFF809002093
:10463000F6090020F4090020F5090020F709002000
:1046400009490A4B0A781B7893420CD0531CDBB201
:10465000242B08BF002310B405480B700478944243
:1046600008BF037010BC7047F6090020F409002051
:10467000F5090020034B04481B78C3EBC30300EB90
:10468000C3007047F409002014020020064B074ABB
:104690001B7812789A421DBF0548C3EBC30300EB99
:1046A000C3000020704700BFF6090020F409002075
:1046B00014020020094B0A4A1B7812780133DBB23E
:1046C000242B08BF00239A4206D0064AC3EBC3033B
:1046D00002EBC3039869704700207047F609002079
:1046E000F409002014020020044A054B10781B78BE
:1046F000C01AB0FA80F04009704700BFF6090020E8
:10470000F709002038B5837D056BDA0714D5164B01
:10471000587AFCF779FA1549FCF7CAFA2946FCF7EA
:10472000C7FA04464FF07E512046FCF773FC08B9E7
:104730004FF07E54204638BD5B0704460BD40A4B2D
:10474000187AFCF761FA0949FCF7B2FA01462846E3
:10475000FCF7AEFA0546E46A29462046FCF750FC11
:104760000028DFD12C46DDE7C81000200AD7233C03
:104770002DE9F04F354D364A364B83B0287A147800
:1047800093F800B0FCF740FA3349FCF791FA019036
:10479000687AFCF739FA3049FCF78AFA2F4F009013
:1047A000DFF8C0A04FF07E5923E041460098FCF7A7
:1047B0007FFA054649462846FCF72CFC00B94D46D1
:1047C00029463846D6F82880FCF710FC002831D05E
:1047D00039463846FCF76CFA074641463846FCF73E
:1047E00023FC20BBF7610134E4B2242C08BF002471
:1047F0002F465C4524D0E5002E1B0AEBC606B37D90
:10480000D6F83080DA07D0D45B0704D4404601994B
:10481000FCF74EFA80462D1B0AEBC505ED6A4146B2
:104820002846FCF7EDFB0028C4D14546C2E7C6F890
:104830001C80D8E729462846FCF73AFA0746CCE719
:10484000074B1F6203B0BDE8F08F00BFC810002007
:10485000F6090020F40900200AD7233CFFFF7F7FE0
:10486000F8090020140200202DE9F04F8B46824603
:10487000664B674D1E7893B0F700A7EB060805EB73
:10488000C80838220021404606F0E5FD9BF80830B4
:10489000DBF80420980788F81630DFF880914CBFC9
:1048A0005C4B5D4BC8F8342006AC0FCB84E80F009E
:1048B000D9F80020DAF8001010460192FCF7F8F958
:1048C00006F0C6FE8646B91B0698C9006B18AEEB0B
:1048D00000001A6980EAE074A4EBE07494426C5022
:1048E00038BF14461C610093CDF808E0FCF78CF942
:1048F000019A1146FCF790FA00210A90FCF776FB2A
:10490000009B002840F07381D9F80420DAF80410E5
:1049100010460192FCF7CCF906F09AFE0146079882
:10492000BB1B081A80EAE07EAEEBE07E744538BF20
:10493000744605EBC303C3F804E01C6100930391C4
:10494000FCF762F9019A1146FCF766FA00210B9018
:10495000FCF74CFB009B002840F05581D9F808205B
:10496000DAF8081010460192FCF7A2F906F070FE82
:1049700001460898BB1B081A80EAE07EAEEBE07E99
:10498000744538BF744605EBC303C3F808E01C61E7
:1049900000930491FCF738F9019A1146FCF73CFAB0
:1049A00000210C90FCF722FB009B002840F02581A1
:1049B000D9F80C30DAF80C1018460093FCF778F9A7
:1049C00006F046FE02460998A7EB060A101A80EA8E
:1049D000E071A1EBE0718C4238BF0C4605EBCA0ACE
:1049E000CAF80C10CAF810400592FCF70DF9009BAC
:1049F0001946FCF711FA00210D90FCF7F7FA78B987
:104A0000BCB9204613B0BDE8F08F00BFF409002008
:104A100014020020F0100020F809002004140020E7
:104A2000994ABAF81430D2881343AAF81430002CEB
:104A3000E7D00AAC2046FFF72DFCA7EB060A05EBF2
:104A4000CA0ACAF8240021469048FFF78BFC214689
:104A5000CAF820008E48FFF785FC9AF81630CAF88D
:104A60002C00D90700F1D580DBF800101A07CAF82E
:104A7000301007D5DAF824000093FCF719F9009BF1
:104A8000CAF83000834A844912780978914200F0CC
:104A9000C3809B0700F1C080804BDDF828A0D3F8CD
:104AA00010B050465946FCF703F9594600F100434F
:104AB00050460093FBF7F2FF784BDDF82CA0D3F8BB
:104AC00014B00E9059465046FCF7F2F8009B014690
:104AD0001846FBF7E3FF594601905046FBF7DEFF0F
:104AE0006E4BDDF830B09B690F9019465846009325
:104AF000FCF7DEF8019A01461046FBF7CFFF009B5A
:104B0000824619465846FBF7C9FF644BDDF834B0BE
:104B1000DB691090594618460093FCF7C9F8014626
:104B20005046FBF7BBFF009B824619465846FBF7F1
:104B3000B5FF5B4911905046FCF776FA002800F06B
:104B400098800022BB1B05EBC3039A62BB1B05EBDD
:104B5000C3039A7D900766D4D107D3F8309066D509
:104B6000504B587AFCF750F84946FCF7A1F84E49EB
:104B7000FCF79EF805464FF07E512846FCF74AFAAE
:104B800008B94FF07E55454E2946D6F82090D8F802
:104B900028704846FCF72AFA002864D0494648465F
:104BA000FCF786F8814639464846FCF73DFA00286E
:104BB00056D1C8F81C903D4ADFF8FCE01178364821
:104BC0004B1CDBB2242B08BF002302AF35620170FF
:104BD000137094E80F008EE80F0097E80F0086E846
:104BE0000F00FFF715FC012013B0BDE8F08F264A37
:104BF000998A12880A439A8286E623499A8A898882
:104C00000A439A82D4E6204A998A52880A439A82B1
:104C1000A4E6CAF8300035E70022BB1B05EBC3034E
:104C20009A619A6292E7012013B0BDE8F08F5307B2
:104C30000AD41C4B187AFBF7E7FF4946FCF738F813
:104C40001949FCF735F88146BE1B05EBC605ED6A30
:104C500049462846FCF7D4F900288CD14D468AE70E
:104C6000C8F81C70A7E729462846FCF721F88146BA
:104C700099E70F495046FCF7B9F9F8B1BB1B0D4A4B
:104C800005EBC3039A6261E768C80008241400209A
:104C900014140020F6090020F4090020F80900206F
:104CA000EFFF7F3FC81000200AD7233CF709002000
:104CB000EFFF7FBFFFFF7F7F080A00200EA8FFF7EE
:104CC000E9FA0EA91848FFF74DFB514600904FF046
:104CD0007E50FBF7E3FE4FF07C51FBF7E9FF06F057
:104CE0001BFD8346009B59461846FBF7E1FFD9F8A8
:104CF0004810FBF7DDFF594681464FF07E50FBF729
:104D0000CDFE01464846FCF787F8A7EB060A0021CE
:104D100005EBCA0A8146FCF77DF908B94FF0000996
:104D2000CAF8289012E700BF2414002010B4034BE7
:104D3000034C0FCB84E80F0010BC7047F01000202C
:104D4000F8090020064A074B12781B789A422CBFBC
:104D500003F1230003F1FF30801AC0B2704700BF97
:104D6000F4090020F609002008B503F0E1FE044A2A
:104D7000044B12781A70BDE80840FFF749BB00BF2A
:104D8000F6090020F509002010B50446007828B186
:104D900002F090FC14F8010F0028F9D110BD00BFFB
:104DA000632870B5054620D91C48A0FB0530400992
:104DB000303002F07FFC1A48A0FB0534E408E3B26F
:104DC000A0FB0320C00800EB8000A3EB40003030C4
:104DD000C0B202F06FFC04EB8400A5EB4000303061
:104DE000C0B2BDE8704002F065BC092805D8BDE836
:104DF00070403030C0B202F05DBC0A26B0FBF6F461
:104E000004F13000C0B202F055FC06FB1450BDE8BE
:104E100070403030C0B202F04DBC00BF1F85EB5176
:104E2000CDCCCCCCF0B50D4685B000210646FCF7C4
:104E3000DDF8002852D1012D56D92C462F4F30468F
:104E40003946FBF735FF023CE4B2012C0646F6D8A2
:104E500005F0010323B130462949FBF729FF064637
:104E60004FF07C513046FBF71BFEFCF7FDF80028A5
:104E70003CD00022234EA6FB0013DB0803EB83018A
:104E8000A0EB4100541C04A930300A44E4B202F8FB
:104E9000100C22461846002BEDD1A54228D96A1ED7
:104EA000121BD2B201320DEB0400302106F0D3FA0E
:104EB000302204AB6C1C2B4403F8102CE4B25CB120
:104EC0000DEB0406A54215D016F8010D013C02F0C9
:104ED000F1FB14F0FF04F5D105B0F0BD2D2002F078
:104EE000E9FB06F10046A6E72B46B3E70446D4E704
:104EF000E5D1DDE72E2002F0DDFBE5E70000C8424A
:104F000000002041CDCCCCCC30B56E4B85B093F8B1
:104F10005830DB0752D400210446FCF767F800281C
:104F200040F0A88068492046FBF7C2FE4FF07C5154
:104F3000FBF7B6FDFCF798F8002800F0A1800021EF
:104F4000624D00E02146A5FB0023DB0803EB830252
:104F5000A0EB420004AA30304C1C0A4402F8100CAA
:104F6000E4B21846002BEDD1022C16D830228B1C4F
:104F700004A8DBB20444032B04F8102C07D003442C
:104F8000FF2903F8102C02D130238DF80230302392
:104F900004241D468DF8033005E0032CF7D004AB44
:104FA000234413F8115C013CE4B2022C7BD0284668
:104FB00002F080FB002CF2D105B030BD4449FBF774
:104FC00077FE00210446FCF711F800285ED1414924
:104FD0002046FBF76DFE4FF07C51FBF761FDFCF7BF
:104FE00043F8002858D00021384D00E02146A5FBA9
:104FF0000023DB0803EB8302A0EB420004AA30305D
:105000004C1C0A4402F8100CE4B21846002BEDD1F7
:10501000032C1ED830228B1C04A8DBB20444042BC2
:1050200004F8102C0FD00331C9B20344042903F84B
:10503000102C08D0302304AA0A44022902F8103C9C
:1050400001D18DF80330302305241D468DF804303E
:1050500005E0042CF7D004AB234413F8115C013CA9
:10506000E4B2032C26D0284602F024FB002CF2D117
:1050700005B030BD2D2002F01DFB04F1004451E7C6
:1050800030238DF800308DF801307DE72D2002F0BF
:1050900011FB04F100449AE7302302218DF800301F
:1050A0008DF80130C6E72E2002F004FB284602F0FE
:1050B00001FB74E72E2002F0FDFA284602F0FAFA0E
:1050C000C9E700BF0414002000007A44CDCCCCCC4A
:1050D0008B42213D00401C4670B54D4B84B093F887
:1050E0005830DB0735D400210446FBF77FFF00284A
:1050F0007BD14FF07C512046FBF7D2FCFBF7B4FF8D
:1051000000286DD00022434DA5FB0013DB0803EB04
:105110008301A0EB4100541C04A930300A44E4B2DE
:1051200002F8100C22461846002BEDD1002C57D067
:1051300004AB1A4412F8110C013CE4B26D466C4405
:1051400001E014F8010D02F0B5FAAC42F9D104B057
:1051500070BD3149FBF7ACFD00210446FBF746FF6B
:10516000002848D12D492046FBF7A2FD4FF07C5185
:10517000FBF796FCFBF778FFA0B10021254CA4FBC0
:105180000032D20802EB8203A0EB430004AD4B1CBB
:1051900030302944DBB201F8100C19461046002AC1
:1051A000EDD173BB30238DF8003030220223164638
:1051B0008DF801205C1EE5B26D4400E05C1E3046B7
:1051C00002F078FAE3B2012B15F8016DF6D12E202A
:1051D00002F070FA304604B0BDE8704002F06ABADE
:1051E000302001248DF80000A6E72D2002F062FA9D
:1051F00004F100447DE72D2002F05CFA04F1004444
:10520000B0E7012BD1D0294411F8116CD2E700BFCF
:1052100004140020CDCCCCCC8B42213D0000204199
:1052200010B5012182B04FF400740820FCF75AFB3E
:105230000322482302A921F8044D09488DF80620CD
:105240008DF80730FCF7DCF80021064A064B92F98E
:10525000582019808A42A8BF1C8002B010BD00BF30
:10526000000C014004140020021100200023074913
:10527000074A91F9581013809942AABF4FF4007160
:105280004FF40073118000B11380704704140020A4
:105290000211002008B50548FCF768FA044B00F439
:1052A00000701B88181A18BF012008BD000C0140AF
:1052B0000211002038B50B48FCF758FA0A4B00F4ED
:1052C00000701B8883420CD00021084A084D094B0E
:1052D000094C11700FCB84E80F002B7843F040038A
:1052E0002B7038BD000C014002110020DE100020A0
:1052F000DD100020F0100020E010002008B5FFF7BE
:10530000C5F920B1BDE80840022004F097BC08BDF3
:10531000F8B5AC4B1B78002B4FD1AB4CAB4D2B7879
:1053200003F0FF0593B3EE0600F1D680E80700F125
:10533000F18015F0E80F0AD02378990700F0F0808B
:105340006EB2002EC0F26181E82004F081FCAB0750
:1053500019D515F0680F13D12378402B00F06D811B
:10536000002B40F03B8100232371FFF78FF920B120
:10537000A37813F0400300F098810023A3702370FA
:10538000022004F065FC690700F1A980904B1B78AE
:1053900003F0FF05002B67D18E4B1B7803F0FF0550
:1053A000DBB9237813F0FC0F03D1F8BD15F0C00F63
:1053B00047D1BDE8F84003F0D1BB012603F0FF055B
:1053C000814C2846013D267001F0C4F9B54240F2F7
:1053D00022817E4D04F04EFCA1E704F06FFCA27A1E
:1053E00015F0010F0CBF13466423A80744BF0A330E
:1053F000DBB2690744BF0A3BDBB22F0744BF01336E
:10540000DBB2EE0644BF03F1FF33DBB2C82B28BF8B
:10541000C8230A2B38BF0A239A4206D000212279DA
:10542000A37242F0080323712173A806237802D5E2
:10543000102B00F0BD8015F0C00FB3D0002B40F052
:10544000DF80654F2A063E7A00F1F080680605D5B8
:1054500071064CBF06F0BF0646F040063046FCF72A
:1054600011FC23783E729DE704F020FC217A15F0B0
:10547000010F0CBF0B466423AE0744BF0A33DBB2F7
:10548000680744BF0A3BDBB22F0744BF0133DBB2DE
:10549000EE0644BF03F1FF33DBB2C82B28BFC8239D
:1054A0000A2B38BF0A23607A15F0200F14BF64223C
:1054B000024615F0400F18BF322215F0800F18BFBA
:1054C0001922994223D00021237262722173FFF7BF
:1054D0004FF9FFF749FC5FE701236370F8BD2378BC
:1054E00013F0D00F02D0E378002B51D0A3781F0621
:1054F00052D413F0200236D0402203F07F0343F051
:105500000103A3702270042004F0A2FB3EE7824254
:10551000D9D141E701F0B8FE012004F099FB08E77A
:1055200013F0280F22D133BB0122A2706A0600F1CA
:105530009A802F076EB201D510232370A8067FF53D
:1055400000AF062001F01CF9A378190607D42278D1
:10555000402A00F0B980802A01D04022227043F016
:105560002003A370EDE6A2702270CCE7A27812F0BF
:10557000C00F00F089806AB26806164602D5990607
:1055800040F1AA802F07D9D513F0E00FD6D1D3E789
:1055900094F90230002B59DA00232371FFF734F815
:1055A00003F064F9FCF770FCFFF7C0FBA378A0E7F9
:1055B000E37A002B5CD10223E37215F0C00F7FF475
:1055C00040AFF6E600110020C8100020DD100020DA
:1055D000C4100020DC1000202C100020DA067FF51B
:1055E000CFAEA278D0077FF5CBAE102B7FF4BBAE49
:1055F000E37A002B3FF4B7AE43F00803E372BFE653
:1056000013F0180F3FF4CEAE1BE72378012B36D0F2
:105610008023237098E6304601F0B2F8102004F0A1
:1056200017FB2F4D2B78DF06FCD5D3E633064CBF96
:1056300006F07F0646F0800608E7A37813F0200204
:105640007FF49EAEDF0638D522708CE6FFF78CFB28
:1056500023799A0703D5A27842F00102A27023F0C1
:10566000060323714FE741216AB21646A17089E70C
:10567000D9077FF59BAE43F00403E3729DE7A3785F
:1056800043F00503A370C3E703F052FA0222237824
:105690002271202B7FF447AF6EB2002EFFF64EAF83
:1056A000A37863F07F03A37048E70822A3702270F9
:1056B00003F054FA02F0B6FE62E65E077FF560AED4
:1056C00043F00803A3705BE61A077FF546AF23F0AB
:1056D0001C0343F0020340E7A17841F04001C4E716
:1056E000DD1000202DE9F04F83B0FEF7CFFF00283A
:1056F00000F0E082837DD0F834800193BA4E96F8B2
:1057000058309B0700F1A7820025B84CA378002BE6
:1057100000F09A806278002A40F09680DF071AD560
:10572000217811F0C00000F0928013F0040B00F01B
:105730007C81802900F0D282402900F0688218071D
:1057400009D5DFF8BCA29AF80910002900F0D5812C
:10575000990740F12782A64B1B7803F0FF0B002B23
:1057600040F08A80A34F3B7803F0FF0B002B54D00E
:105770001BF0100F40F026811BF0010F40F07581E7
:105780001BF0E80F0CD02378980700F074814FFAD3
:105790008BF9B9F1000FC0F29D81E82004F058FAAE
:1057A0001BF0020F19D01BF0680F13D12378402B88
:1057B00000F04882002B40F0028200232371FEF7A4
:1057C00065FF20B1A37813F0400300F07C82002332
:1057D000A3702370022004F03BFA1BF0040F1CD0CE
:1057E000237813F0D00F00F00D81E378002B40F008
:1057F000098194F90230002BC0F2FD81FFF7B4FA61
:1058000023799F0703D5A27842F00102A27023F00A
:1058100006030420237104F01BFA774B1B7803F076
:10582000FF0B002B36D1754B1B7803F0FF0B002BC1
:1058300074D1237813F0FC0F3FF468AF03F08EF9B6
:10584000A378002B7FF466AF03B0BDE8F08FE37A56
:10585000002B00F0BA809F0740F1F780684B5B7A1D
:10586000002B40F0E9810023E372614B1B7803F0C9
:10587000FF0B002B3FF476AF012758460BF1FF3B9F
:10588000277000F067FFBB4540F28181594F04F05B
:10589000F1F968E704F00AFA1BF0010F18BF64235E
:1058A000227A607A08BF13461BF0020F1CBF0A332E
:1058B000DBB21BF0040F1CBF0A3BDBB21BF0080F6E
:1058C0001CBF0133DBB21BF0100F1CBF03F1FF3311
:1058D000DBB2C82B28BFC8230A2B38BF0A231BF012
:1058E000200F14BF642101461BF0400F18BF322166
:1058F0001BF0800F18BF19219A4201D1884292D023
:105900000022237261722273FEF732FFFFF72CFA36
:105910003A4B1B7803F0FF0B002B8AD004F0CEF932
:105920001BF0010F18BF6423A27A08BF13461BF0B7
:10593000020F1CBF0A33DBB21BF0040F1CBF0A3B73
:10594000DBB21BF0080F1CBF0133DBB21BF0100FE2
:105950001CBF03F1FF33DBB2C82B28BFC8230A2BBF
:1059600038BF0A239A4206D000212279A37242F05E
:105970000803237121731BF0200F237802D0102B12
:1059800000F04F811BF0C00F3FF454AF002B40F0EC
:10599000D680DFF86CA01BF0800F9AF8089040F0DA
:1059A000DA801BF0400F06D019F0400F14BF09F049
:1059B000BF0949F040094846FCF764F923788AF8A2
:1059C000089037E701236370A0E623791A077FF573
:1059D000C2AE019B414603F0300002F0E3FB2379A5
:1059E00023F008032371B6E604140020C810002039
:1059F00000110020DD100020C4100020DC10002069
:105A00002C100020A378180600F1F58013F0200276
:105A100000F09280402203F07F0343F00103A37063
:105A20002270042004F014F9F7E62946584684F859
:105A30000BB002F0B7FB5846FCF724F9A37823F02B
:105A4000020343F00403A37085E613F00C0F3FF448
:105A500082AEBE4A527A002A40F00D8119077FF5C6
:105A600002AF022004F0EAF8FDE601F00DFC01208F
:105A700004F0EEF884E613F0280F7CD0A27812F040
:105A8000C00F70D01BF0400F4FFA8BF902D099066F
:105A900040F157811BF0080F03D013F0E00F00F026
:105AA000A7801BF0200F3FF474AE062000F068FEC4
:105AB000A3781A0607D42178402900F0F3808029C2
:105AC00001D04021217043F02003B9F1000FA370F1
:105AD000BFF663AE2378012B00F0DD8080232370B6
